:020000040800F2
:10000000786A00203102000893230008BF2200080C
:100010009123000829080008494F0008000000004B
:10002000000000000000000000000000872D000814
:100030007D08000800000000A1230008892D0008A9
:100040004B0200084B0200084B0200084B0200085C
:100050004B0200084B0200084B0200084B0200084C
:100060004B0200084B0200084B0200084B0200083C
:100070004B0200084B0200084B0200084B0200082C
:100080004B0200084B0200084B0200084B0200081C
:100090004B0200084B0200084B0200084B0200080C
:1000A0004B0200084B0200084B0200084B020008FC
:1000B0004B0200084B0200084B0200084B020008EC
:1000C0004B0200084B0200084B0200084B020008DC
:1000D0004B0200084B0200084B0200084B020008CC
:1000E0004B0200084B0200084B0200084B020008BC
:1000F0004B0200084B0200084B0200084B020008AC
:100100004B0200084B0200084B0200084B0200089B
:100110004B0200084B0200084B0200084B0200088B
:100120004B0200084B0200084B0200084B0200087B
:100130004B0200084B0200084B0200084B0200086B
:100140004B0200084B0200084B0200084B0200085B
:100150004B0200084B0200084B0200084B0200084B
:100160004B0200084B0200084B0200084B0200083B
:100170004B020008952300084B0200080000000015
:100180004B0200084B02000800F002F800F040F8B3
:100190000AA090E8000C82448344AAF10107DA45E2
:1001A00001D100F035F8AFF2090EBAE80F0013F0F4
:1001B000010F18BFFB1A43F001031847EC5200006F
:1001C0000C530000103A24BF78C878C1FAD85207FF
:1001D00024BF30C830C144BF04680C6070470000C1
:1001E0000023002400250026103A28BF78C1FBD840
:1001F000520728BF30C148BF0B6070471FB505F0DC
:100200002FF99DE8030000F0DFF91FBD10B510BD08
:1002100000F036FA1146FFF7F1FF05F0B5F800F0EF
:1002200054FA03B4FFF7F2FF03BC00F085FA0000B4
:100230000948804709480047FEE7FEE7FEE7FEE77A
:10024000FEE7FEE7FEE7FEE7FEE7FEE704480549B6
:10025000054A064B70470000212E0008890100085E
:10026000780A0020786A0020782A0020782A002066
:1002700070B5064600F08CF9056806F10B0020F019
:100280000704B4429CBF002070BD2B466A68BAB117
:100290001068A04210D304F1080188423CBF5068A6
:1002A000586007D35168101941601168091B01603B
:1002B00058601460101D70BD13465268002AE7D1C3
:1002C0002146284600F06CF90028DED170BD70B5DB
:1002D0000446051F00F05CF90068002C14BF446858
:1002E00070BD002C18BFAC423CBF20466468F8D3F8
:1002F00001680A18AA4218BF456003D12A6805465A
:100300001144016028684119A1421CBF6C6070BD96
:100310006168696021680844286070BD53EA020C76
:1003200000F069802DE9F04B4FF00006002B1FBF55
:10033000B3FA83F503FA05F424FA05F65E4012BF1A
:100340001643B2FA82F502FA05F4C5F120051EBF84
:1003500022FA05FC44EA0C04203556EA044C4FEA24
:10036000144418BF641C4FF000084FF0000990427D
:1003700071EB030C39D3002919BFB1FA81F701FAE7
:1003800007F6B0FA80F700FA07F6C7F120071EBF9C
:1003900020FA07FC46EA0C062037B6FBF4FCA7EB74
:1003A0000507103F07F01F0BCBF120060CFA0BFBE3
:1003B0002CFA06F644BFB3460026202FA4BF5E46A3
:1003C0004FF0000B5BEA060C08BF4FF0010B19EB76
:1003D0000B09ABFB027C48EB0608C01B06FB02CCFA
:1003E0000BFB03CC71EB0C01C1E70B460246414607
:1003F0004846BDE8F08B13B54FF000004FF0000108
:10040000AFF30080BDE81C407047032A40F2308003
:1004100010F0030C00F0158011F8013BBCF1020F45
:10042000624498BF11F801CB00F8013B38BF11F8C6
:10043000013BA2F1040298BF00F801CB38BF00F8DD
:10044000013B11F0030300F02580083AC0F008805A
:1004500051F8043B083A51F804CBA0E80810F5E73E
:10046000121D5CBF51F8043B40F8043BAFF3008021
:10047000D20724BF11F8013B11F801CB48BF11F896
:10048000012B24BF00F8013B00F801CB48BF00F866
:10049000012B704710B5203AC0F00B80B1E818501E
:1004A000203AA0E81850B1E81850A0E81850BFF45E
:1004B000F5AF5FEA027C24BFB1E81850A0E81850FD
:1004C00044BF18C918C0BDE810405FEA827C24BF51
:1004D00051F8043B40F8043B08BF7047D20728BFDF
:1004E00031F8023B48BF11F8012B28BF20F8023B2E
:1004F00048BF00F8012B70474FF000020429C0F0FC
:10050000128010F0030C00F01B80CCF1040CBCF145
:10051000020F18BF00F8012BA8BF20F8022BA1EB97
:100520000C0100F00DB85FEAC17C24BF00F8012B7C
:1005300000F8012B48BF00F8012B70474FF0000274
:1005400000B5134694469646203922BFA0E80C50C9
:10055000A0E80C50B1F12001BFF4F7AF090728BFA4
:10056000A0E80C5048BF0CC05DF804EB890028BF20
:1005700040F8042B08BF704748BF20F8022B11F049
:10058000804F18BF00F8012B7047704770477047C5
:10059000004870471C0A002070477047704770473A
:1005A00038B504460A4600206946AFF300800028AB
:1005B00008BF38BD02460099204600F03FF80120F0
:1005C00038BD012000F054B8F8B5AFF300800546FF
:1005D00000200C46102000BF0646A819A0420DD9E5
:1005E000324669460020AFF30080070008BF00F0E4
:1005F0003FF80098A04218BF0546C419FFF7C8FF8E
:1006000005600746F01D20F007004619284600F057
:100610000AF8B44208BFF8BDA21B31463868BDE8ED
:10062000F84000F00BB800210160C0E901107047EC
:100630001020704700487047140A002003464068A5
:100640008C46002818BF88423CBF03464068F8D358
:1006500018681844884207D00CF1030020F0070006
:10066000001D411A521A0146081D0A60FFF72FBEED
:1006700010B500F039F8BDE8104000F02FB8704711
:100680007546FFF7D7FFAE4605006946534620F092
:100690000700854618B020B5FFF7D8FDBDE820401B
:1006A0004FF000064FF000074FF000084FF0000B2E
:1006B00021F00701AC46ACE8C009ACE8C009ACE8E1
:1006C000C009ACE8C0098D46704710B50446AFF3C9
:1006D00000802046BDE81040FFF7A3BD002801D0F0
:1006E00000F02AB87047000010B5012805D000219D
:1006F00003A000F027F8012010BD09A1F8E70000D1
:1007000053494752544D454D3A204F7574206F66FA
:100710002068656170206D656D6F72790000000062
:100720003A2048656170206D656D6F727920636F46
:10073000727275707465640001491820ABBEFEE7E3
:100740002600020070B505460C460A2000E06D1C2C
:1007500000F011F835B128780028F8D102E0641CC7
:1007600000F009F814B120780028F8D1BDE87040F5
:100770000A20AFF3008008B569468DF80000032019
:10078000ABBE08BD0146014801F064B84C00002032
:1007900010B5044801F070F8042801D0012010BD04
:1007A000002010BD4C00002010B500F015F8012805
:1007B00001D0012010BD074801F074F8040006D1F3
:1007C0004FF40061034800F0EDFE00B10124204623
:1007D00010BD00004C00002008B501208DF800007D
:1007E0009DF8000008BD000038B5002400931346B2
:1007F0000A460146034801F0F9F800B101242046F9
:1008000038BD00004C00002038B50024009313468A
:100810000A460146034801F0D5F900B101242046FB
:1008200038BD00004C000020FEE7000010B500229B
:100830004FEA020100EB8203521CC3F88413102A12
:10084000F8D300224FF400738418521C84F81C1152
:100850009A42F9D30170417001228270C0F8C4132A
:10086000027640238371417680F81C1380F81D23A3
:1008700080F81F1380F81E13002010BD704772B659
:10088000FEE70022AFF3008030B50E4B0546012095
:100890009C7B022C15D2987B00241C54987B03EB84
:1008A000800045609D7B03F10C002A54987B421C1C
:1008B0009A73303008703A2048702F208870CC70BE
:1008C000002030BD040A002010B5012203A1044815
:1008D00004F0D0FB0349087010BD0000313A00005D
:1008E000D00000200000002070B5044600F006F99A
:1008F0000546601C02D004480078044400F0FEF86D
:10090000401BA042FAD370BD100000202DE9F84F23
:10091000DFF8BCA10022012503264FF00F090AF1E0
:10092000040BAAF1040E00BF0B6805FA02F4234081
:10093000A34270D10F7907F00307012F01D0022FD6
:1009400016D187684FEA420806FA08FC27EA0C0726
:10095000D1F80CC00CFA08FC4CEA070CC0F808C02F
:100960004768A7430C79C4F3001494403C434460A7
:100970000C79E443A4070AD0C4684FEA420C06FA93
:100980000CF7BC438F6807FA0CF72743C7600C7954
:1009900004F00304022C12D1D40800EB840CDCF820
:1009A00020405707FF0E09FA07F824EA0804D1F897
:1009B000108008FA07F848EA0408CCF82080046898
:1009C0004FEA420C06FA0CF7BC430F7907F0030715
:1009D00007FA0CF7274307604C6814F4403F70D0C7
:1009E0003C4C276847F480472760246822F00307BF
:1009F00004F480440094384C07EB040CDCF80848FD
:100A000097074FEA177809FA08F7BC43334FB84203
:100A100002D1002724E054E0314FB84201D1012730
:100A20001EE0304FB84201D1022719E02E4FB842E4
:100A300001D1032714E02D4FB84201D104270FE064
:100A40002B4FB84201D105270AE02A4FB84201D105
:100A5000062705E0284FB84201D1072700E0082704
:100A600007FA08F72743CCF80878DAF80040574629
:100A7000D1F804C09C435FEACC2C00D51C433C60F9
:100A8000DBF800405F46D1F804C09C435FEA8C2C41
:100A900000D51C433C60DEF800407746D1F804C026
:100AA0009C435FEA8C3C00D51C433C60084F083FE8
:100AB0003C68D1F804C09C435FEACC3C00D51C43A1
:100AC0003C60521C102AFFF42FAFBDE8F88F0000E5
:100AD000083C014044380240003001400000024020
:100AE0000004024000080240000C024000100240D6
:100AF0000014024000180240001C024001488068B7
:100B00007047000010000020D0F8000302F0C5BCC0
:100B1000D0F8000302F0CBBC006803F033BF0068DC
:100B200003F034BF01EB410202EBC10100EB810095
:100B300090F86000704701EB410202EBC10100EB4D
:100B40008100006D704710B5044690F8F802012846
:100B500009D0012084F8F802206803F022FF002069
:100B600084F8F80210BD022010BD2DE9FE430546B1
:100B7000DDE90B7095F8F842DDF828C0012C1ED095
:100B800001EB410404EBC1044FF0010905EB8404BF
:100B900085F8F892002684F83D6084F83830A4F88F
:100BA000400084F8391084F83F7002F07F0884F820
:100BB0003A805FEA026805D584F83B9004E00220A1
:100BC000BDE8FE8384F83B6084F83CC0CDF800C0EB
:100BD000CDE90170286803F047FF85F8F862EFE778
:100BE00070472DE9F00301EB4104DDE906C9DDE9B9
:100BF000087504EBC10400EB8404022684F83B2052
:100C000084F83F30BCF1000F0AD084F84260002520
:100C10006BB1012B2FD0022B12D0032B16D10FE07A
:100C20004FF0030884F8428084F83D50EFE7BCF1B0
:100C3000010F0BD152B9DFB9012284F8552003E02E
:100C4000B2B194F85420B2B184F84260C4F8449030
:100C5000E76484F86050256584F8391084F86150A1
:100C6000027C04F138010068BDE8F00303F085BFA1
:100C700094F85520E7E784F84250E7E72DE9F04182
:100C800006680446304603F088FE012875D12068C6
:100C900004F097F8002870D0206804F092F88002E1
:100CA00003D521684FF400104861206804F089F8EA
:100CB000C00203D521684FF480104861206804F019
:100CC00080F8400103D521684FF0806048612068BA
:100CD00004F077F8800702D5216802204861206877
:100CE00004F06FF8800015D521684FF0005048617E
:100CF000D6F84004C0070DD11021304603F022FE83
:100D0000304603F001FE0121206804F03FF8204640
:100D1000FFF7FEFE206804F054F8C00102D520461B
:100D200001F03DFA206804F04CF8000705D5204694
:100D300000F0F1F8216808204861206804F041F8CB
:100D4000C043C0060CD42068816921F01001816184
:100D5000204601F06EFA2068816941F0100181613E
:100D6000206804F02EF8800123D5206803F001FFED
:100D7000074600254FF0010814E01AE005F00F01C6
:100D800008FA01F038420CD006EB4510D0F8000507
:100D9000E9B20004204602D500F0FEFF01E001F0B8
:100DA000F0F86D1CA068A842E8D821684FF00070E8
:100DB0004861BDE8F08170B58AB0040005D094F8B0
:100DC000F9022568002618B107E001200AB070BDBD
:100DD00084F8F862204600F027F8032084F8F9022E
:100DE000E86BC00500D42661206803F059FD04F1CA
:100DF000100128220D466846FFF74CFB94E80F00CF
:100E000003F0F4FC0121206804F017F82822294699
:100E10006846FFF73FFB94E80F0003F04FFF012007
:100E200084F8F9020020D1E72DE9F04186B00446AC
:100E300014216846FFF782FB2C492068884251D173
:100E40002B4C4FF00008206840F004002060206820
:100E500000F004000590206840F001002060206848
:100E600000F001000590206840F00200206020683A
:100E7000022500F0020005900D208DE821010326D7
:100E80000A2769461B48CDE90367FFF73FFD282085
:100E90008DE8210169461848CDE90367FFF736FD63
:100EA00043F623408DE8210169461448CDE90367E4
:100EB000FFF72CFD206840F000502060206800F013
:100EC00000500590206840F080402060206800229B
:100ED00000F08040059011464D2000F0B1F84D2003
:100EE00000F0A0F806B0BDE8F0810000000004406A
:100EF0003038024000080240000002400004024076
:100F0000D0F8000302F062BBD0F8000302F062BB2D
:100F1000006803F079BFD0F8000302F00FBB10B5F2
:100F2000044690F8F80201280DD0012084F8F80258
:100F30000121206803F0CCFC206803F0DFFC0020D6
:100F400084F8F80210BD022010BD10B5044690F8D8
:100F5000F802012809D0012084F8F802206803F083
:100F60009AFF002084F8F80210BD022010BD000096
:100F700002488168027811448160704710000020A7
:100F80000B4810B5016841F400710160016841F43B
:100F900080610160016841F480710160032000F00C
:100FA0006FF80F2000F006F800F024F8002010BDC4
:100FB000003C024070B50D4D04464FF47A7128781C
:100FC000B1FBF0F00A490968B1FBF0F000F0D0FE87
:100FD00048B9102C07D200222146501E00F030F8EC
:100FE00000206C6070BD012070BD0000100000206A
:100FF0001C0000200A4808B5016841F480410160E6
:10100000006800F4804000900548001F016841F02E
:1010100080510160006800F08050009008BD000021
:1010200044380240002809DB00F01F0201219140F2
:101030004009800000F1E020C0F800117047000076
:10104000F0B40E4B1B680C46C3F30223C3F1070533
:10105000042D00D90425191D072901D2002300E021
:10106000DB1E012606FA05F1491E214099409E40EB
:10107000761E16403143F0BC03F067BF0CED00E074
:10108000064900F0070208684FF6FF03184040EADF
:101090000220034A10430860704700000CED00E096
:1010A0000000FA052DE9F0470E46050065D0DFF88F
:1010B0001481D8F80000F7B200F00700B04207D260
:1010C00088F80070D8F8000000F00700B04254D152
:1010D00028683D4C810712D5400703D5206840F4AD
:1010E000E05020602878000703D5206840F4604075
:1010F00020602068A96820F0F0000843206028786C
:10110000C0072DD0304968680839012812D002285C
:1011100013D0032811D00968890700292DDA216826
:1011200021F0030101432160FFF7E8FC814641F211
:10113000883A0EE009688903EFE709688901ECE75E
:10114000FFF7DCFCA0EB0901514502D90320BDE803
:10115000F0872068696800F00C00B0EB810FEFD1D8
:10116000D8F80010404601F00701B14207D90770D6
:10117000006800F00700B04201D00120E7E72878BE
:10118000400705D52068E96820F4E0500843206056
:101190002878000706D52068296920F4604040EAD5
:1011A000C100206000F018F82168084AC1F303115B
:1011B000515CC8400649086006480068FFF7FAFE1F
:1011C0000020C4E7003C0240083802409454000864
:1011D0001C00002014000020154810B5006810F015
:1011E0000C02144813D04110042A0FD0082A0ED143
:1011F0000F4C241F2268236802F03F025B0207D5D0
:101200002068C0F38810A0FB010106E0084610BD6D
:101210002168C1F38811A1FB00010023FFF77EF8CC
:101220002168C1F30141491C4900B0FBF1F010BD38
:10123000083802400024F4002DE9F84F04006ED075
:101240002078DFF84C93C007A9F104054AD009F1D2
:1012500004000168C1F38101012908D00068C0F3CE
:10126000810002280AD1D9F80000400206D528687A
:10127000800337D560680028E1D033E06068B0F5BE
:10128000803F10D0B0F5A02F286810D020F4803017
:101290002860286820F4802028606068A8B1FFF7E3
:1012A0002DFC06460DE0286840F48030F4E740F459
:1012B00080202860F7E700BFFFF720FC801B642830
:1012C00073D828688003F7D50CE0FFF717FC0646B3
:1012D00005E000BFFFF712FC801B6428F0D82868E7
:1012E0008003F7D42078DFF8AC8280074FF0000A43
:1012F0003ED5A748001D016811F00C0F08D000680A
:10130000C0F3810002280BD1D9F80000400207D4B5
:101310002868800716D5E068012800D112E033E183
:10132000E068B8B10120C8F80000FFF7E7FB064607
:1013300005E000BFFFF7E2FB801B0228C0D8286849
:101340008007F7D52868216920F0F80040EAC1003D
:1013500028600DE0C8F800A0FFF7D0FB064604E0C7
:10136000FFF7CCFB801B02281FD828688007F7D422
:101370002078000722D5864F87486169703771B1A0
:1013800001210160FFF7BAFB064604E0FFF7B6FB58
:10139000801B022809D838688007F7D50EE0C0F80E
:1013A00000A0FFF7ABFB064605E082E0FFF7A6FBD7
:1013B000801B02287DD838688007F7D42078400742
:1013C00068D5DFF8CCB100270BF13C0BDBF800004F
:1013D000C0000BD4DBF8001041F08051CBF80010B6
:1013E000DBF80000012700F0805000906B4E306861
:1013F000C00510D4306840F480703060FFF77EFB89
:10140000009005E0FFF77AFB0099401A022850D8B7
:101410003068C005F6D55E4EA0686C3601280FD046
:101420000528306810D020F001003060306820F0CE
:1014300004003060A068B8B1FFF760FB00900FE0D7
:10144000306840F00100F4E740F004003060F7E756
:10145000FFF754FB0099411A41F28830814266D867
:1014600030688007F4D50EE0FFF748FB009007E0F6
:10147000FFF744FB0099411A41F28830814256D867
:1014800030688007F4D42FB1DBF8001021F08051D0
:10149000CBF80010A069C8B33D49091D0968C1F324
:1014A000810102294AD00228504607D0C8F86000BE
:1014B00000E03CE0FFF722FB04463BE04746C8F86B
:1014C0006000FFF71BFB064605E000BFFFF716FBB9
:1014D000801B02282BD828688001F7D4D4E90701A3
:1014E0000843A16A2E4A490802EB0141626A41EAB7
:1014F0008211084394F82C1040EA0161C9F80010E9
:1015000001203866FFF7FAFA044606E03EE000BF25
:10151000FFF7F4FA001B022809D828688001F7D5E4
:1015200034E000BFFFF7EAFA001B022802D90320CB
:10153000BDE8F88F28688001F4D427E00128F7D0AF
:10154000D9F80000E26900F4800191421CD1226ABE
:1015500000F03F01914217D147F6C071626A014025
:10156000B1EB821F10D1A26A4FF0FF3300F440317B
:1015700003EB5202B1EB024F06D194F82C1000F0AD
:101580007060B0EB016F01D00120D1E70020CFE700
:101590000438024000004742800E4742007000407D
:1015A0000000FFFF2DE9FE430446002603200D4600
:1015B00084F83400606C03285ED0B5F5805F5BD0A2
:1015C0004FF4006700204FF08068BD421FD1814674
:1015D000009001900021206800F0F9FE800113D4F2
:1015E0006946204601F030FA07000DD1019840030A
:1015F00034D5B4F850000104206800F019FF07004A
:1016000002D10221206823E0A06B384328E01DB1FD
:10161000A06B40F0006023E0814600900190002123
:10162000206800F0D4FE8001EED46946204601F027
:101630000BFA0700E8D10198C0030FD5B4F85000A9
:101640000104206800F0F4FE0700DDD100212068CD
:1016500000F03BFF0700D7D14F46D5E74746D3E719
:10166000A063A06B144F4FF0010848B12068876356
:1016700084F8348001260EE0A06B40F08050EFE744
:10168000211DD4E9050C0EC9CDE90050CDF808C0E4
:10169000206800F09FFE4FF40071206800F0FCFE0F
:1016A00028B121688F63A16B0143A163012684F8EF
:1016B00034803046BDE8FE83FF054000F0B5426E41
:1016C000920F0A70426EC2F383624A70426EC2F396
:1016D00001628A70426E120CCA70B0F86420120A5D
:1016E0000A7190F864204A71826E120DCA80826E6F
:1016F000C2F303420A72B0F86820C2F3C0324A72E1
:10170000B0F86820C2F380328A72B0F86820C2F361
:101710004032CA72B0F86820C2F300320A73002661
:101720004E73426C4FF40075012462B1012A3AD025
:10173000026847499163816B41F08051816380F871
:1017400034400120F0BDB0F86820C36E9205120D40
:1017500042EA93720A61C26EC2F3C2620A75C26E35
:10176000C2F302624A75C26EC2F342528A75C26EF9
:10177000C2F38242CA75C26EC2F3C2320A760A69E5
:10178000521C42650B7E03F007039B1C9A40426586
:101790000B7A03F00F0704FA07F383655B0A5A43D9
:1017A000C0E917250EE090F86820C36E9206920AF1
:1017B00042EA13420A610A69521C92024265C0E978
:1017C0001652056630F86C2FC2F3803201F8192FDB
:1017D0000288C2F3C6124A70027802F07F028A7051
:1017E0004268D20FCA704268C2F341720A714268FD
:1017F000C2F382624A714268C2F383528A714268BC
:10180000C2F34052CA710E724268C2F300424A7279
:101810008288C2F3C0328A728288C2F38032CA726E
:101820008288C2F340320A738288C2F300324A735C
:101830008288C2F381228A738288C2F30122CA732A
:101840000079C0F3460008744C740020F0BD00001D
:10185000FF054000426C0A60826C4A60C26C8A607C
:10186000026DCA60426D0A61826D4A61C26D8A6111
:10187000006EC8610020704770B50446B0F8500093
:1018800000250104206800F008FF18B1A16B014396
:10189000A16304E00021206800F099FD0546C5F32E
:1018A000432070BD70B504000ED094F834000025BC
:1018B00018B92577204600F04FF8032084F834004B
:1018C000204600F00BF808B1012070BDA563256328
:1018D000012084F83400002070BD0000FEB5002512
:1018E000044676200095CDE9015029460B460A466C
:1018F000206800F06FFD48BB154E46F8A05F2068D9
:1019000000F07AFD012535600220FEF7EDFF20464C
:1019100001F07EF930B100BF84F83450A16B01436F
:10192000A16313E0204601F0FCF80028F4D14FF445
:101930000071206800F0B0FD002808D02268054939
:101940009163A16B0143A16384F834500120FEBD73
:1019500000802542FF054000F0B587B00446142101
:101960006846FEF7EBFD1D492068884233D11C48CC
:101970000024016841F400610160006800F4006027
:10198000059017481438016841F0040101600168AE
:1019900001F004010591016841F00801016000684F
:1019A000022500F0080005904FF4F850CDE900053D
:1019B00002AA03260C2782E8D00069460948FEF7F0
:1019C000A5FF0420CDE9000502AA694682E8D000FF
:1019D0000548FEF79BFF07B0F0BD0000002C01405A
:1019E0004438024000080240000C02402DE9F04F4C
:1019F00087B09B4616460D460446FFF77FF80090D9
:101A00003DB194F83400012807D0A06B40F000509D
:101A10000DE0A06B40F0006009E00020A063E26DE3
:101A200006EB0B01914204D9A06B40F00070A0635B
:101A300086E0032184F834102168C862616C0129B2
:101A400000D076024FF0FF3101914FEA4B21029115
:101A50004FF0010803AA902102278146CDF8188093
:101A600082E8820201A9206800F09BFCBBF1010F13
:101A700005D927633146206800F080FD05E0C4F8F1
:101A800030803146206800F092FDDFF834A130B19B
:101A90002268C2F838A0A16B0143A1634CE0029E0A
:101AA0001EE0406B000413D596B10027206800F0BB
:101AB000A7FC05F8010B010A05F8011B010C05F84C
:101AC000021B000E361F7F1C05F8010C082FEDD3FA
:101AD000FFF714F80099411A109881421DD2E0B125
:101AE0002068426B40F22A310A42DAD0416BC905C4
:101AF00009D5BBF1010F06D9616C032903D000F0B1
:101B0000FDFD0028C4D12068416B09071AD5C0F833
:101B100038A0A06B40F0080050E02168C1F838A060
:101B2000A06B40F00040A06384F83480C4F830908B
:101B3000032007B0BDE8F08F84F83480C4F83090FB
:101B40000120F6E7416B890705D5C0F838A0A06BE6
:101B500040F0020032E0416B89061BD5C0F838A086
:101B6000A06B40F0200029E000F04AFC05F8010BD2
:101B7000010A05F8011B010C05F8021B000E05F80F
:101B8000010C361FFEF7BAFF0099411A10988142E6
:101B90000ED268B12068416B890201D5002EE3D1D5
:101BA000216840F23A50886384F834800020C0E70E
:101BB0002168C1F838A0A06B40F00040A063BBE7EB
:101BC000FF0540002DE9F04F8DB09B4616460D46AF
:101BD0000446FEF793FF0A903DB194F834000128C3
:101BE00007D0A06B40F000500DE0A06B40F000600B
:101BF00009E00020A063E26D06EB0B01914204D9DD
:101C0000A06B40F00070A0637AE0032184F83410E8
:101C10002168C862616C012900D076024FF0FF3163
:101C200003914FEA4B2104919021CDE905104FF02B
:101C30000109CDE90709824603A9206800F0B1FB3C
:101C4000BBF1010F06D9202020633146206800F047
:101C50006FFD05E0102020633146206800F081FD13
:101C60005FEA000806D0216840488863A06B40EA1C
:101C7000080071E0049E27E0406B40041CD5DEB1F3
:101C80005FF0000715F8010B009015F8011B361FD7
:101C900040EA0120009015F8021B40EA0140009044
:101CA00015F8011C40EA016000906946206800F0C8
:101CB000BAFB7F1C082FE5D3FEF720FF0A99411AD3
:101CC0001698814220D2F8B12068416B40F21A3256
:101CD0001142D1D0416BC90523D5BBF1010F20D9E9
:101CE000616C03291DD000F009FDD0B122681F49A5
:101CF0009163A16B0143A16384F83490C4F830A0D0
:101D000001200DB0BDE8F08F216818488863A06BF2
:101D100040EA0800A06384F83490C4F830A003209F
:101D2000EFE72068416B090705D510498163A06B77
:101D300040F0080010E0416B890705D50B4981632D
:101D4000A06B40F0020007E0416BC90606D50749C9
:101D50008163A06B40F01000A063CDE740F23A51E0
:101D6000816384F834900020CBE70000FF05400039
:101D700010B5401EB0F1807F01D3012010BD4FF09F
:101D8000E02460610F21601703F0DFF80020A061FC
:101D900007202061002010BD2DE9F04707460068AC
:101DA0000D4600EB4116D6F8080501EB410342074A
:101DB00003EBC5014FF006004FF004084FF0050A91
:101DC00007EB810401D541463CE0D6F80815C9056A
:101DD00007D54FF48070C6F80805072084F8610025
:101DE0001CE0D6F80815890603D52020C6F808059A
:101DF00018E0D6F808150A074FF0080104D5C6F810
:101E0000081584F861A009E0D6F80825520514D514
:101E10004FF48060C6F8080584F8611029463868D8
:101E200002F0BFFDD6F8080580050ED529463868B2
:101E300002F0B7FD4FF40070A0E0D6F808150906CF
:101E4000F0D58021C6F80815C8E7D6F808054FF088
:101E50000001C0074FF010094FF001023BD0386974
:101E600030B1A06CD6F81035C3F31203C01A206548
:101E700084F86120E165C6F8082594F83F0030B188
:101E8000022804D0032809D0012807D012E02946EF
:101E9000386802F086FDC6F808950BE0D6F8000514
:101EA00040F00050C6F8000584F860202946384606
:101EB000FEF796FE3869012806D1B4F84010A06CF0
:101EC000B0FBF1F0C00704D014F8540F80F001000B
:101ED0002070BDE8F087D6F80805800735D594F85E
:101EE0006100022301280AD005280BD006280CD057
:101EF00008280AD003280FD0072818D01CE084F83F
:101F0000602019E084F860A016E0E06D401CE065F8
:101F1000022801D9E1650DE084F86030D6F80005AB
:101F200020F0804040F00040C6F8000504E0E06D7D
:101F3000401CE06584F86080C6F8083594F860209D
:101F400029463846FEF74CFEC3E7D6F80805C0061A
:101F5000BFD594F83F00032803D020B1022802D057
:101F60000BE0E16505E0E165386930B9032084F8EC
:101F700061002946386802F014FD4846C6F8080595
:101F8000A7E72DE9F047026802EB4114D4F80825D1
:101F900001EB4103550703EBC1034FF004024FF07F
:101FA000060A00EB830304D5C4F8082583F861A072
:101FB00051E0D4F808554FF00007AD064FF0020C81
:101FC0000BD52022C4F8082593F83D20012A33D1EF
:101FD00083F83D7083F860C03DE0D4F80855AD0546
:101FE00004D54FF40072C4F8082534E0D4F808553D
:101FF0004FF001065FEAC5784FF040050DD0DF6570
:10200000D4F80825520603D583F83D60C4F8085576
:10201000C4F8086583F861601DE0D4F808855FEABC
:1020200048680BD583F8612083F83D60DF65006860
:1020300002F0B7FCC4F80855BDE8F087D4F808559D
:102040004FF008095FEA05784FF0050508D5C4F898
:10205000089583F861500068BDE8F04702F0A1BC24
:10206000D4F808855FEAC86810D50322DF6583F8D5
:10207000612093F83D2022B993F83C200AB983F8F7
:102080003D60006802F08DFC10201AE0D4F808854D
:102090005FEA086818D5056955B1DD6D6D1CDD6511
:1020A000022D0BD9DF6583F86020FEF799FD07E06C
:1020B00083F861A0006802F074FC01E083F860C05E
:1020C0008020C4F80805B7E7D4F808855FEA4858C7
:1020D00007D583F86190006802F063FC4FF48060DC
:1020E000EFE7D4F808855FEA8878A5D593F8618092
:1020F000B8F1010F0FD0B8F1030F30D0B8F1040FD1
:102100002DD0B8F1050F2DD0B8F1060F2DD0B8F1B4
:10211000080F2AD03CE083F8606093F83F20022A41
:1021200001D0032A34D102692AB993F8552082F0EC
:10213000010283F855200269012A29D1DA6C3AB3E9
:10214000B3F840502A44521EB2FBF5F2D2071FD01A
:1021500093F8552082F0010283F8552018E083F8A7
:1021600060C015E083F8605012E0DD6D6D1CDD6528
:10217000022D03D9DF6583F8602009E083F860C091
:10218000D4F8002522F0804242F00042C4F8002535
:10219000C4F808C593F86020FEF722FD4CE77CB533
:1021A00004680546D4F840040190D4F8400420F0B7
:1021B0002E0000900198800709D50198C00702D031
:1021C0002846FEF7A1FC009840F00200009001981C
:1021D000000724D5009840F00800009001984007BF
:1021E0001AD5A869022803D0E86801280CD00FE0AE
:1021F0000198C0F341400228286803D0012102F071
:10220000C5FD05E00221FAE74EF66020C4F804049B
:102210002846FEF779FE02E02846FEF771FE019897
:102220008006009802D540F020000090C4F84004D9
:102230007CBD2DE9F041024600680646016AC1F303
:10224000434301F00F07C1F30A15022B31D1002DD2
:102250002FD007EB470101EBC70102EB8104616C52
:10226000002926D0226DE36C2A449A4223D82A46BC
:1022700002F0ABFD606C28446064206D284420654A
:1022800006EB4710D0F81015B4F84020C1F3C9414F
:10229000AA420ED100290CD0D0F8001521F08041BF
:1022A00041F00041C0F8001514F8540F80F001000F
:1022B0002070BDE8F081042084F86000F9E7FEE7B3
:1022C00010B506490648FEF7DCFA044CA41EA11D11
:1022D00020700448FEF7D5FA607010BD040000209D
:1022E0006C54000880540008154808B5016841F096
:1022F00080010160016801F080010091016841F0F6
:1023000004010160016801F004010091016841F0DD
:1023100001010160016801F001010091016841F0D3
:1023200002010160016801F002010091016841F0C1
:1023300008010160006800F00800009008BD00007E
:102340003038024010B500220B490C4801F07DF8EE
:1023500008B1FEF794FA0A49084802F061F908B199
:10236000FEF78DFA054802F09EF9002803D0BDE87B
:102370001040FEF784BA10BDBD46000808030020D7
:102380002C000020014802F02DB8000008030020B6
:10239000FEE7FEE70148FEF771BC0000E006002002
:1023A00070470A6842624A688262D1E902231A438E
:1023B000D1E904310B43C16A1A4321F0F7011143FB
:1023C000C16200207047006800F0030070470844B5
:1023D0004069704770B50DF1100C11439CE8700016
:1023E0002343194329434268314347F6FF639A4325
:1023F0000A434260002070BD032101600020704745
:10240000D0F8800070470A688260D1E901231A433E
:10241000D1E903310B43C1681A436FF30B01114338
:10242000C160002070470968C0F880100020704724
:1024300010B585B004463720CDE900104020029049
:10244000002003904FF48060049069462046FFF717
:10245000DAFF41F288323721204600F09BF905B0BF
:1024600010BD000010B504460A4885B0014329207C
:10247000CDE9001040200290002003904FF48060CE
:10248000049069462046FFF7BEFF204600F03AFA66
:1024900005B010BD0000108010B585B004461020B6
:1024A000CDE9001040200290002003904FF480609E
:1024B000049069462046FFF7A6FF41F288321021BA
:1024C000204600F067F905B010BD10B585B0044690
:1024D0000620CDE9001040200290002003904FF428
:1024E0008060049069462046FFF78DFF41F28832F4
:1024F0000621204600F04EF905B010BD30B585B07C
:1025000000240546009401944FF480600294CDE9C4
:10251000034069462846FFF776FF0B484FF4FA510F
:102520000068B0FBF1F041F288314843401E03D20D
:102530004FF0004005B030BD696B0906F6D5C520E7
:10254000A8632046F6E700001C00002010B585B007
:1025500004464FF4D570009008200190402002906E
:10256000002003904FF48060049069462046FFF7F6
:102570004AFF204600F02CFA05B010BD10B585B01A
:1025800004461220CDE90010402002900020039064
:102590004FF48060049069462046FFF734FF41F213
:1025A00088321221204600F0F5F805B010BD10B5B4
:1025B00085B004461120CDE9001040200290002093
:1025C00003904FF48060049069462046FFF71BFF9C
:1025D00041F288321121204600F0DCF805B010BD30
:1025E00010B585B004460720CDE9002040200290B8
:1025F000002003904FF48060049069462046FFF766
:1026000002FF41F288320721204600F0C3F805B0EE
:1026100010BD10B585B0044600210220CDE90010A0
:10262000C020CDE902014FF4806004906946204645
:10263000FFF7E9FE204600F03DF905B010BD10B5EA
:1026400085B004460920CDE90010C020029000208A
:1026500003904FF48060049069462046FFF7D3FE54
:10266000204600F027F905B010BD10B585B004462E
:1026700000213320CDE900104020CDE90201000106
:10268000049069462046FFF7BEFE41F288323321AE
:10269000204600F07FF805B010BD10B585B00446A7
:1026A0000D20CDE9001040200290002003904FF44F
:1026B0008060049069462046FFF7A5FE41F288320B
:1026C0000D21204600F066F805B010BD30B585B08C
:1026D0000C46054600210320CDE900104020CDE93D
:1026E00002010001049069462846FFF78CFE22464D
:1026F0000321284600F028F905B030BD10B585B09B
:10270000044600210C20CDE900104020CDE9020153
:102710000001049069462046FFF775FE034A0C212C
:10272000204600F037F805B010BD000000E1F505C7
:1027300010B585B004461920CDE900104020029064
:10274000002003904FF48060049069462046FFF714
:102750005AFE41F288321921204600F01BF805B0DC
:1027600010BD10B585B004461820CDE900104020FA
:102770000290002003904FF4806004906946204648
:10278000FFF741FE41F288321821204600F002F89E
:1027900005B010BD454B10B51B684FF4FA54B3FBA0
:1027A000F4F353435B1E02D24FF0004010BD426B66
:1027B00012F0450FF6D01205F4D4426B520703D540
:1027C00004218163084610BD426BD20702D001216B
:1027D000816305E0C52282630269D2B28A4201D0D8
:1027E000012010BD0021FFF7F2FD3149084201D15F
:1027F000002010BD002802DA4FF0007010BD41002B
:1028000001D5402010BD810001D5802010BDC10040
:1028100002D54FF4807010BD010102D54FF4007055
:1028200010BD410102D54FF4806010BDC10102D539
:102830004FF4006010BD010202D54FF4805010BD6E
:10284000410202D54FF4005010BD810202D54FF471
:10285000804010BDC10202D54FF4004010BD4103BD
:1028600002D54FF4003010BD810302D54FF4802013
:1028700010BDC10302D54FF4002010BD010402D5E4
:102880004FF4801010BD410402D54FF4001010BD6C
:10289000810402D54FF4800010BD000702D54FF42B
:1028A000000010BD4FF4803010BD00001C0000205F
:1028B00008E0FFFD12494FF4FA520968B1FBF2F14A
:1028C00041F288325143491E02D24FF00040704716
:1028D000426B12F0450FF6D01205F4D4416B490754
:1028E00003D50421816308467047416BC90703D0B3
:1028F0000121816308467047C5218163002070472C
:102900001C0000200F494FF4FA520968B1FBF2F1A4
:1029100041F288325143491E02D24FF000407047C5
:10292000426B12F0450FF6D01205F4D4416B490703
:1029300003D50421816308467047C52181630020C7
:10294000704700001C00002030B5204B4FF4FA54B3
:102950001B68B3FBF4F341F2883463435B1E02D27D
:102960004FF0004030BD446B14F0450FF6D0240505
:10297000F4D4436B5B0703D504218163084630BD63
:10298000436BDB0702D00121816303E00369DBB203
:102990008B4201D0012030BDC52181630021FFF7AA
:1029A00016FD10F4604F04D0410406D54FF40050DA
:1029B00030BD000C1080002030BD000402D54FF463
:1029C000805030BD4FF4803030BD00001C0000202E
:1029D00014494FF4FA520968B1FBF2F141F288321E
:1029E0005143491E02D24FF000407047426B12F033
:1029F000450FF6D01205F4D4416B490703D50421E5
:102A0000816308467047416BC90703D00121816388
:102A100008467047416B490601D54021816300207B
:102A2000704700001C00002010B5064C01202070EB
:102A3000FDF7AEFE18B9207820F001002070207854
:102A400010BD0000010000202DE9F04788B00D46C0
:102A50000446FEF753F80026824600960196374654
:102A600008212068FFF718FD002829D1B4F850008C
:102A700001042068FFF7DCFC002821D1401E4FF044
:102A80000808CDE9020830204FF00209CDE9040919
:102A90000120CDE9067002A92068FFF782FC2068BA
:102AA000FFF7E3FD00280BD16F462068416B11F062
:102AB0002A0F08D0416B09071AD5C0F838800820C2
:102AC00008B0BDE8F087416B890205D5FFF798FC97
:102AD00047F82600761C02E0416B8904EAD5FEF730
:102AE0000DF8A0EB0A00401CDFD14FF00040E7E7F3
:102AF000416B890703D5C0F838900220E0E7416BAD
:102B0000890603D5202181630846D9E740F23A516E
:102B10008163019800BA2860009800BA68600020BC
:102B2000CEE710B590B004460120ADF8380020681B
:102B3000FFF749FC002854D0606C032842D020687D
:102B4000FFF767FD00284AD100212068FFF73FFC0E
:102B5000606704212068FFF73AFCA067082120681D
:102B6000FFF735FCE0670C212068FFF730FCC4F864
:102B70008000606C032825D00EA92068FFF7A6FD11
:102B800000282CD1606C03281CD0BDF838002065CB
:102B900001042068FFF753FD002820D100212068A0
:102BA000FFF715FC606604212068FFF710FCA066A3
:102BB00008212068FFF70BFCE0660C212068FFF776
:102BC00006FC206704212068FFF701FC000DE0648B
:102BD00003A92046FEF772FD30B14FF0805010B0CF
:102BE00010BD4FF08060FAE7B4F8500000230204F3
:102BF0002068FFF7F5FC0028F1D104F1100007C8A8
:102C00008DE8070094E80F00FFF7E4FB0020E6E7FB
:102C10002DE9F84F0026044600963546B046006878
:102C2000FFF76CFC002827D12068FFF78FFC4FF0DE
:102C3000805B4FF001094FF6FF7748B1A66420682A
:102C4000FFF75CFC002817D1A06C012802D020E01F
:102C5000C4F8489000212068FFF7EAFB58B918E053
:102C600000212068FFF7E4FB002805D151462068C9
:102C7000FFF7F8FB10B15846BDE8F88F0021206837
:102C8000FFF7A5FB05464FEAD0780098401C00905E
:102C900002E0DFF82CA00098B84202D2B8F1000F91
:102CA000DED00098B84202D34FF08070E4E76800AD
:102CB00002D5C4F8449000E066640020DCE7000020
:102CC000000010C170B5064C054601202070FDF7CC
:102CD0006BFD18B92846FFF7A7FE2070207870BD5D
:102CE0000100002010B5124888B014460078C007D3
:102CF00002D0032008B010BDC1B1012905D00229BE
:102D000008D003290CD00420F4E76846FDF73AFD0B
:102D100006980AE06846FDF735FD0798208005E033
:102D20006846FDF72FFD0798400A20600020E1E784
:102D30000100002070B51D46164608460124A31E5A
:102D40002A463146FDF750FD28B900BFFDF720FDAA
:102D50000028FBD10024204670BDFFF765BE0000AF
:102D600070B51D46164608460124A31E2A46314664
:102D7000FDF74AFD28B900BFFDF70AFD0028FBD189
:102D80000024204670BD7047FEF7F2B830B593B00E
:102D900030216846FDF7D2FB14210CA8FDF7CEFBCD
:102DA0001D480025016841F080510160006800F075
:102DB000805011901948016841F480410160006819
:102DC000022400F480401190012000900004019042
:102DD0008001CDE9064004200890A820CDE909042F
:102DE00007200B906846FEF727FA08B172B6FEE797
:102DF0000CA90F2081E831004FF4A0500F904FF440
:102E00008050109005210CA8FEF74CF9002801D045
:102E100072B6FEE713B030BD40380240007000408B
:102E20000248016841F470010160704788ED00E0DC
:102E300010B500224FF6FF7300EB8204B4F8844310
:102E400024040BD49A4207D002F00F0300EB830056
:102E500041F40041C0F88413D0B210BD521CD2B26C
:102E6000102AE9D31A46F7E77FB51C46012501AEC3
:102E70000023009586E80E0002232A46214600F032
:102E8000DDFB04B0002070BD7FB51D4690F81D33FA
:102E9000089C03B100240123CDE90031CDE90224CF
:102EA00002230022294600F0C9FB04B0002070BDB7
:102EB00010B500F0E9FA002010BD8278012A07D190
:102EC0000222027401224274002242828182C28262
:102ED0000022114600F00FB87FB51C46012501AE57
:102EE0000023009586E80E002A46214600F0A6FB46
:102EF00004B0002070BD70B504460120A3780546DB
:102F0000012B0BD0022B08D1204600F01FF958B13D
:102F1000032809D0022800D1A57070BDA160A2814C
:102F200025760221A17070BDA5700021217670BDAB
:102F30007FB51D4690F81D33089C03B10024012382
:102F4000CDE90031CDE9022400231A46294600F0DC
:102F500075FB04B0002070BD1FB500231446CDE9F9
:102F600000310822CDE902231A46214600F066FB13
:102F700004B0002010BDFDF7B7BC000070B50546D9
:102F8000002005F54E7500BF00EB800404EBC00483
:102F900005EB4404E67B0A348E4201D0FF2909D1B7
:102FA000A679964201D0FF2A04D1E4799C4206D04A
:102FB000FF2B04D0401CC0B20228E5D3FF2070BD17
:102FC000102907D200EB8100B0F88413C1F30E0181
:102FD000C0F884130020704730B48578029C012D1E
:102FE0000FD141F080010174062141740321428216
:102FF000B1EB122F02D140F2094100E000218182A1
:10300000C482224630BC1946FFF775BF0A88037890
:103010001A440A80017808447047F8B50E4600F15A
:103020001C040091054623464FF400720021FFF76F
:10303000D3FF002806D1324621462846BDE8F84095
:1030400001F0F2B8F8BD38B50D460091044600F520
:103050008E734FF480720021FFF7BEFF002844D129
:1030600094F81C1184F8261394F81D1184F8271382
:10307000B4F81E11A4F8281394F8201184F82A1328
:1030800094F8211184F82B1394F8221184F82C134E
:1030900094F8231184F82D13082908D0102906D09C
:1030A000202904D0402902D0402184F82D13082D76
:1030B0001BD9B4F82411A4F82E13B4F82611A4F8DF
:1030C0003013B4F82811A4F8321394F82A1184F8B4
:1030D000341394F82B1184F8351394F82C1184F8D8
:1030E000361394F82D1184F8371338BDF8B51C4603
:1030F0001646009341F4407200F58E731D46002180
:10310000FFF76AFF002814D16978032911D12978C3
:103110008A1EA24200D814460021A2B2AD1C04E0CF
:103120006B5C891C06F8013B89B29142F8D30021FF
:103130003170F8BD01004FF0000004D0012901D02A
:10314000022901D002207047012070472DE9F84F75
:103150000125017E04460B26092728464FF0070863
:103160004FF0050A4FF00D090C2919D2DFE801F0E4
:10317000B4060E26313C48606B7C899A627904F172
:1031800010012046FFF7E8FE022012E06179204698
:1031900000F0D0F9012804D0042871D002287FD093
:1031A0009AE0207CE18A00F0800021B180283AD1A9
:1031B0000320207690E0802814D02EE0D4F8C403B9
:1031C000E0812379A2892046A168FFF785FE0420CB
:1031D000EFE72179204600F0ADF9012802D005285B
:1031E00040D056E0277677E000906379A2892046A8
:1031F000A168FFF79DFED4F8C403E0810620D8E75C
:103200006179204600F096F9012806D0052807D0FC
:10321000022808D0042809D05EE084F818805BE01A
:103220000C2020761EE084F818A055E0267652E0A7
:103230000022237911462046FFF74EFED4F8C4033E
:10324000E0810820B5E72179204600F073F90128D4
:1032500004D0042824D0052804D03DE084F8189038
:10326000002539E0032537E00090002263791146FC
:103270002046FFF75DFED4F8C403E0810A2098E7FA
:103280000EE06179204600F055F9012804D00228AB
:10329000A8D0042804D01FE0002584F818901BE073
:1032A000267619E0617E491CC9B26176022902D8EE
:1032B0002076A07010E0D4F8D42306212046904751
:1032C0000025657661792046FFF77AFE2179204650
:1032D000FFF776FE257002252846BDE8F88F00002E
:1032E0002DE9FE4304460126407800250D27B0460F
:1032F00004F58E7208280CD2DFE800F0042A3C683E
:103300006F86929908212046FFF79DFE10B1032891
:103310000DD097E094F82D03A07184F8018094F803
:103320001D130091CDE9015094F81C3338E094F856
:103330001E03401CC0B284F81E03032818D861790C
:103340002046FFF73DFE21792046FFF739FE59E080
:1033500012212046FFF777FEA8BB022047E000BFFE
:1033600094F81E03401CC0B284F81E03032840D901
:10337000277067E00121204601F06BF910B10328A6
:1033800022D05FE00220FFF7F6FD84F81C830320C3
:103390006070A07994F81D13CDE9001543460290A2
:1033A00021798022204600F035FFA07994F81D1382
:1033B0000091CDE9015094F81C3361790022204638
:1033C00000F028FF3EE00EE027702EE009212046A5
:1033D000FFF723FE38B9042009E0B4F83A13204679
:1033E000FFF71BFE10B10328BAD02BE00520607058
:1033F00028E061792046FFF7E3FD21792046FFF7B9
:10340000DFFD657025701DE094F8341306250AE091
:10341000FF232046FFF76AFE38B1032805D011E0EC
:1034200094F8351307250029F2D165700AE094F865
:10343000361331B1FF232046FFF758FE08B10328A9
:1034400000D100263046BDE8FE8370B50E4604006C
:1034500018D084F8CC230025C4F87C53C4F88053DA
:1034600004F54874FDF7E2F9E57025706570A57004
:10347000A4F548740EB1C4F8D463204600F06EF889
:10348000002070BD022070BD10B5D0F8D003FDF74C
:103490005AFBBDE81040FFF74DBE012180F8201314
:1034A000002180F8211380F822130846704710B5D8
:1034B0000446012084F82103002084F8200384F8C6
:1034C0002303204600F0B1F821792046FFF778FD6C
:1034D00061792046FFF774FD002010BD10B5C820AB
:1034E000FDF702FA002010BDD0F8D003FDF723BB92
:1034F00010B50124D0F8D003FDF711FB20B101284D
:1035000005D0022803D101E0002400E00224204677
:1035100010BDD0F8D00301EB410202EBC10100EB7A
:10352000810090F83B1011B190F85400704790F86A
:1035300055007047D0F8D003FDF7F4BAD0F8C413A3
:10354000491CC0F8C41301780B2905D1D0F87C13AD
:10355000002901D0896908477047000010B504466A
:1035600090F8CC03E8B9104810490122C0F8004394
:10357000C4F8D00301600C2181600021C1600161A9
:10358000C0E9062101624263C162FDF714FC08B183
:10359000FDF775F90448FDF7BFFA0146204600F033
:1035A00026F8002010BD0000E006002000000440C6
:1035B000FEB508AF97E870008DE87000D0F8D00332
:1035C000FDF7D3FABDE8FE40FFF7B4BD002180F857
:1035D00023137047012180F82313704710B5D0F8EA
:1035E000D003FDF795FCBDE81040FFF7A3BDC0F880
:1035F000C4137047D0F8D00301EB410303EBC101C2
:1036000000EB810090F83B1011B180F8542001E0EC
:1036100080F855200020704710B5D0F8D003FDF792
:103620007EFCBDE81040FFF785BD10B5D0F8D00393
:10363000FDF78BFCBDE81040FFF77CBD2DE9FF4195
:103640000DF1280898E8F0008DE8F000D0F8D003DC
:10365000FDF7C7FA04B0BDE8F041FFF76BBD0346C4
:103660000220D3F87C13C9692AB1012A05D18979CE
:103670001846FFF722BCC979FAE77047D0F87C03F7
:103680000549C069416505498165012100F8501F60
:103690008170002070470000555342435040302055
:1036A0002DE9F84F0746D0F87C0301263546C4695A
:1036B0004FF00B0A4FF00A0B94F850004FF0090935
:1036C0004FF007080C2845D2DFE800F0D20611259C
:1036D0002E4852757EA7AFCB84F86110022084F883
:1036E0005000009563791F2204F1540159E061797B
:1036F0003846FFF71FFF012802D002287ED03FE0A6
:10370000E06D002829D094F86000000601D5032060
:103710004BE0052049E0237962893846D4F88C10C3
:10372000FFF7A2FB042040E021793846FFF702FFB3
:1037300001284FD16289E06D90420CD9D4F88C10E9
:10374000801A1144C4F88C10E0656BD02379384698
:10375000FFF78AFB8CE00020E06563E00095637969
:1037600022893846D4F88C10FFF78EFB06201CE027
:1037700061793846FFF7DEFE012804D00228C8D060
:10378000052815D074E02289E06D9042E3D9D4F881
:103790008C10801A1144C4F88C10E06542D000955A
:1037A00063793846FFF770FB62E084F850005FE011
:1037B00084F850B05CE023790D2204F1780138469A
:1037C000FFF752FB0820F0E721793846FFF7B2FEF9
:1037D000012802D005281DD04AE004F8505F384681
:1037E000A570D7F87C13CC692179FFF77DFE0D28F1
:1037F0000CD12149A06F884208D100E036E0A16DCC
:10380000E06F884202D194F8840008B102262FE0CC
:1038100000262DE084F850902AE000223846FFF779
:103820001EFF38B984F8508022E001223846FFF7A5
:1038300016FF10B1042811D01AE061793846FFF75D
:1038400068FEC0F10100C2B261793846FFF7D2FECE
:10385000217900223846FFF7CDFEDBE784F850A03F
:1038600006E0384600F015F8060001D184F8505003
:103870003046BDE8F88F000055534253A122027430
:10388000FE2242740022428282820122C282FFF71B
:1038900032BB21210174FF214174002141828182C8
:1038A000C1820A46FFF727BB70B5D0F87C1301250B
:1038B000CC69A17B21B1022902D003292ED127E0B6
:1038C0002146FFF7DBFF00210546032801D01DB18B
:1038D00024E02170002504E02078022801D902208C
:1038E00001E02078401C2070002002230CE000BF83
:1038F00000EB800202EBC00204EB8202401C82F863
:10390000923082F8C110C0B222788242F0D805E02D
:103910000021FFF7D2FA08B9E07BA073284670BDFA
:1039200010B51446D0F87C230078D3690B2801D059
:10393000022010BD01EB810000EBC10003EB800110
:10394000342220469031FCF7A5FD002010BD70B553
:103950000546D0F87C030026C469617939B1284650
:10396000FFF7A6FA61792846FFF72AFB66712179ED
:1039700039B12846FFF79CFA21792846FFF720FB4A
:103980002671D5F87C03C06920B1FCF7A0FCD5F8FE
:103990007C03C661002070BDFEB50546D0F87C03EF
:1039A0005023062201792846FFF7E8FA0646FF2849
:1039B00023D0022E21D20146284600F03FFEE0B976
:1039C0004FF480773846FCF753FCD5F87C13044657
:1039D000C861200011D03946FCF7B0FD06EB860027
:1039E00000EBC60005EB400090F84E130A0606D522
:1039F000E171B0F85013618105E00220FEBDA171B4
:103A0000B0F85013218190F856130A0604D5E171DD
:103A1000B0F85803608103E0A171B0F85803208129
:103A2000002020736073A073A1792846FFF700FA85
:103A30006071E1792846FFF7FBF920712846FFF70E
:103A40001DFEA27942B3208930B395F81D130226DA
:103A50000091CDE9016095F81C336179284600F0AA
:103A6000D9FBE279C2B16089B0B195F81D1300911C
:103A7000CDE9016095F81C332179284600F0CAFB96
:103A8000217900222846FFF7B5FD617900222846FA
:103A9000FFF7B0FD0020FEBD0320FEBD2DE9F0477D
:103AA0000746D0F87C034FF0010AC469207B10B1AF
:103AB00001282DD12CE1B4F8F800217801254FF030
:103AC000000888426FD200EB800101EBC00004EBDC
:103AD0008000022680F89150B4F8F8004FF00509F4
:103AE00000EB800101EBC00104EB810292F8901021
:103AF00009290DD2DFE801F0050C1F880DB10C0C6F
:103B0000FF00042082F89000D7F8C403C4F8FC003A
:103B100000E1C1B238469F3200F08CF940B9B4F8E8
:103B2000F80000EB800101EBC00004EB8000B6E080
:103B300002287DD099E0C1B2384600F0ABFA10B14E
:103B4000022831D091E0B4F8F80000EB800101EBDD
:103B5000C00004EB800090F8921011B180F8C150C1
:103B600001E080F8C180B4F8F820032002EB820164
:103B700001EBC20104EB810181F89000B4F8F81068
:103B800001EB810202EBC10104EB810181F891801C
:103B9000B4F8F81001EB810202EBC10104EB8101E2
:103BA00081F89280B6E0AAE0B4F8F80000EB80015A
:103BB00001EBC00004EB800090F89210022902D0C3
:103BC00080F8C15001E080F8C180B4F8F81001EB32
:103BD000810202EBC10104EB810181F89090B4F8FD
:103BE000F80000EB800101EBC00004EB800080F8DE
:103BF0009150B4F8F80000EB800101EBC00004EB39
:103C0000800080F8926085E0C1B23846943200F0BE
:103C1000BBF900288CD1B4F8F80000EB800101EB6F
:103C2000C00004EB800080F89050B4F8F81000E079
:103C300008E001EB810202EBC10104EB810181F894
:103C4000918031E0B4F8F81001EB810202EBC10180
:103C500004EB810181F890905CE0C1B238469C325F
:103C600000F0CFF920B1022823D004282DD051E054
:103C7000B4F8F80000EB800101EBC00004EB800019
:103C800090F89C10062901D002290BD1D7F8C41353
:103C9000D4F8FC20891A42F21072914202D280F8C4
:103CA000906037E080F8905034F8F80F401C208086
:103CB00030E0B4F8F810082001EB810202EBC101FA
:103CC00004EB810181F8900024E0B4F8F80000EBE7
:103CD000800101EBC00004EB800080F89050B4F844
:103CE000F80000EB800101EBC00004EB800080F8DD
:103CF00091600FE0FFE7401CA4F8F8000AE0A4F888
:103D0000F8802573D7F8D42302213846904701E084
:103D10004FF0000A5046BDE8F08700002DE9F84357
:103D2000D0F87C2301EB810303EBC103D2690125A9
:103D300002EB8304082794F890302E46052B22D0FE
:103D400000224FF00508062B02D0072B2AD10CE0E9
:103D5000002300921A4600F0D7F80BE002280FD09B
:103D600018E000BF84F890701BE0002300921A4610
:103D700000F0B6F90028F1D184F89060002511E038
:103D800084F890800EE004F19C0200F03AF920B132
:103D9000022807D00428E5D004E004F8906F022040
:103DA000607002252846BDE8F8832DE9F8430446F3
:103DB000D0F87C03089E0F46C56994F8200360B1D3
:103DC00020780B2809D107EB870000EBC70005EB33
:103DD000800090F89010012902D00220BDE8F883FD
:103DE0000621297380F89010A5F8FA70394620460C
:103DF000009600F089F8D4F8C48340F271204FF0A7
:103E00000109464309E0D4F8C413A1EB0800B0EB64
:103E1000061F0CD894F8200348B139462046FFF716
:103E20007DFF0128EFD085F80C900020D6E785F8BB
:103E30000C90D2E72DE9F0411546D0F87C230227FB
:103E40000026D4694FF0010894F85220012A02D0CC
:103E5000022A56D126E024208022E06584F86020E2
:103E60000A2284F86220C4F86360C4F86760A4F88A
:103E70006B60122284F86320490184F8641084F88E
:103E8000656084F8666084F8670084F868600220E2
:103E900084F8508084F8520004F110000127C4F81F
:103EA0008C002EE0FFF7FCFB07002AD122212846D8
:103EB000FCF722FBD4F88C00007800F01F0068703B
:103EC000D4F88C00007840092870D4F88C00407831
:103ED000000602D585F8028000E0AE7054F88C0F21
:103EE00010228168C5F80310C068C5F80700216872
:103EF00005F10C001031FCF788FA2068006AC5F85B
:103F00001D003846BDE8F0812DE9F0411546024616
:103F10001F46D2F87C330220069EDC6994F85230AA
:103F2000012B06D0022B2DD1BDE8F0411046FFF742
:103F3000B7BBB4F8980010217043E065802084F886
:103F400060000A2084F8620004F16300FCF7D4FAF0
:103F5000282084F86300280E84F86500280C84F873
:103F60006600280A84F8670084F86850300A84F8EC
:103F70006A0084F86B60012004F8500F0220A070E2
:103F80000120E763BDE8F08170B51646D0F87C23C8
:103F90000125D46994F85220012A02D0022A2ED198
:103FA0001AE00820E065802084F860000A2084F888
:103FB0006200102104F16300FCF79EFA252084F8CA
:103FC0006300012084F85000022084F8520004F1BC
:103FD0001000C4F88C0012E0FFF762FB05000ED160
:103FE00054F88C0F4188427849BA007862F31F4137
:103FF00041EA006030602068C08840BAB08028463E
:1040000070BD70B5154602460E46D2F87C130220EC
:10401000CC6994F85210012914D0022911D13146EB
:104020001046FFF73DFB00280BD154F88C1F897810
:1040300001F00F0129702168097B69702168497BB3
:10404000A97070BD0E258020E56584F860000A2007
:1040500084F86200102104F16300FCF74DFA03209C
:1040600084F86300700184F86400002084F865001F
:1040700084F8660084F8675084F86800012084F8AA
:104080005000022084F8520004F11000C4F88C00A3
:10409000012070BD70B502460220D2F87C33DC6985
:1040A00094F85230012B06D0022B18D1BDE8704095
:1040B0001046FFF7F5BA0025E56584F860500A2040
:1040C00084F86200102104F16300FCF715FA84F80B
:1040D0006350012004F8500F0220A070012070BD31
:1040E0002DE9F041154602461F46D2F87C330220E6
:1040F000069EDC6994F85230012B06D0022B2DD19C
:10410000BDE8F0411046FFF7CBBAB4F89800102193
:104110007043E065002084F860000A2084F86200A3
:1041200004F16300FCF7E8F92A2084F86300280E04
:1041300084F86500280C84F86600280A84F8670073
:1041400084F86850300A84F86A0084F86B600120B3
:1041500004F8500F0220A0700120E763BDE8F08151
:1041600000207047D0F87C230078D2690B2808D152
:1041700001EB810000EBC10002EB800090F89100A0
:1041800008B100207047012070472DE9F84304462C
:10419000D0F87C03089E0F46C56994F8200360B1EF
:1041A00020780B2809D107EB870000EBC70005EB4F
:1041B000800090F89010012902D00220BDE8F88319
:1041C0000721297380F89010A5F8FA703946204627
:1041D0000096FFF785FFD4F8C48340F271204FF0BA
:1041E0000109464309E0D4F8C413A1EB0800B0EB81
:1041F000061F0CD894F8200348B139462046FFF733
:104200008DFD0128EFD085F80C900020D6E785F8C9
:104210000C90D2E7FEB508AF97E870008DE870000B
:10422000FFF7C6F90020FEBD2DE9F74F82B00878F0
:10423000029D4FF0000B0C4685F83803487885F84E
:1042400039034888D84605F54E75FF2801D94FF443
:104250008070688008792871487968718879A871B8
:10426000C879E871207A287229780920092900D0B4
:104270002870092A7CD98146ADF800005FE06946C4
:104280002046FEF7C3FE04464078042854D1207827
:10429000092801D084F8009008EB880101EBC800E0
:1042A00005EB400A20788AF80A0060788AF80B004B
:1042B000A0788AF80C00E0788AF80D0020798AF856
:1042C0000E0060798AF80F00A0798AF81000E07972
:1042D0000AF10A068AF81100207A307200271CE0E1
:1042E00069462046FEF792FE04464078052814D120
:1042F0007079012802D1B079022830D020780728BF
:1043000001D0072020700AEBC70122461431029821
:1043100000F030F87F1C8346FFB23079B84204D9F0
:104320006888BDF800108842DAD83079B84211D8D0
:1043300008F1010000F0FF08B8F1020F04D268880C
:10434000BDF8001088429AD82879022800D30220AC
:1043500040450DD9032005B0BDE8F08F08E0F079A5
:104360000028D0D120780928CDD084F80090CAE761
:104370005846F0E7F0B513780B7053784B7093788C
:104380008B70D478CC7095888D8006469379002008
:104390008B71D5B16FF30A058D8092884FF4007749
:1043A000C2F30A02BA4200D33A461543A1F80450B8
:1043B00096F81D13002904F0030108D001290BD041
:1043C000E143890700D153B1F0BD0320F0E7012993
:1043D00002D0E1438907F7D10BB1102BF4D90320A8
:1043E000F0BD0000FEB5022104468DF8001094F8DF
:1043F00021230020012A01D10322227022780D26D8
:10440000082700250C2A17D2DFE802F0061734E847
:104410001669CC7C848CA2E194F8200300280BD090
:1044200001202070C820FEF7A6FD2046FFF7D6F831
:1044300084F81C53C4F8C853EAE094F82303012815
:104440000DD0D4F8C803B0F57A7F0CD994F81F03C7
:10445000401CC0B284F81F03032878D875E084F8A4
:104460001F532170D4E00A30C4F8C8030A20FEF7B5
:1044700082FDCDE0D4F8D42312B104212046904728
:104480006420FEF778FD2046FFF732F884F81D031C
:104490000520207000212046FEF7CAFC60718021B3
:1044A0002046FEF7C5FC20710146A07994F81D2333
:1044B0000092CDE9015094F81C3380222046FFF78A
:1044C000A9FEA07994F81D130091CDE9015094F84C
:1044D0001C33617900222046FFF79CFE98E02046BD
:1044E000FEF7FEFE8DF800009DF80000002808D1C0
:1044F00084F8245394F83703012801D0072062E0A0
:10450000277085E0D4F8D423002A46D00121204624
:104510009047F5E794F83D13204600F0A8F8E0BB7B
:10452000092050E094F83F034FF00A0580060CD5AF
:104530000121204600F0A9F88DF800009DF8000048
:1045400018B19DF80000032862D1257060E03CE0BE
:10455000D4F8801309B3C4F87C5394F8471300BF10
:1045600004EB8002D2F8782312798A4206D104EB58
:104570008000D0F87803C4F87C0304E0401C10F0FD
:10458000FF00EDD0284600B3816820468847E0B997
:10459000062020700321204600E039E0D4F8D4231F
:1045A000904735E0D4F87C0378B10169204688470C
:1045B0008DF800009DF8000020B19DF80000022851
:1045C00003D025E00B20207022E0267020E0D4F8F4
:1045D0007C03E8B141692046884719E084F82153FB
:1045E0002046FCF723F9D4F87C0320B1C1682046AB
:1045F0008847C4F87C53D4F8D42312B1052120464F
:10460000904794F82203012804D02046FFF704F8CD
:104610000020FEBD84F82253204600F044F8F7E75E
:10462000002211B1D0F8803313B102221046704736
:104630000123C0F88033C0F87813F7E70246002062
:1046400092F83C338B4202D982F82413704702203F
:1046500070478278012A06D1002202740523437430
:1046600041828282C28200221146FEF744BC8278D7
:10467000012A06D1002202740923437441828282F6
:10468000C28200221146FEF736BC8278012A06D18A
:10469000002202740323437441828282C282002278
:1046A0001146FEF728BC10B50446FEF7B5FF012100
:1046B0002046FEF713FF002010BD000001290AD09C
:1046C0000548022906D0042903D0052903D1032176
:1046D00000E00121017070470C00002000207047AD
:1046E00030B58DB01546012449B1012909D0022900
:1046F00010D0032918D004240DB0204630BD00246A
:10470000FAE701466A460E48FFF70AF90028F3D196
:10471000019813E001466A460948FFF701F90028AD
:10472000EAD1BDF8080009E001466A460448FFF7EF
:10473000F7F80028E0D1BDF80800400A2860DEE75D
:104740000803002030B58FB0054600930B460146A4
:1047500001240C48FFF729FB68B101AA2946094842
:10476000FFF7DEF89DF81100042806D0282804D0B1
:104770003A2803D101E0002400E003240FB02046D2
:1047800030BD00000803002010B501460124034895
:10479000FFF7E8FC00B10024204610BD080300200C
:1047A00030B58FB0054600930B46014601240E48F4
:1047B000FFF7EBFC78B101AA29460B48FFF7B0F8E8
:1047C0009DF8110004280AD0272806D0282806D0F2
:1047D0003A2805D103E0002402E0022400E003248B
:1047E0000FB0204630BD00000803002070B504461D
:1047F00006990A9E049D0D98012916D0E06840F0A4
:104800004000E060204600F02BF8A16B1EB321F4BD
:104810008031A163012D07D1A16841F00601A1609B
:10482000A16841F02001A16070BDA16B21F480312D
:10483000A163E168094A1140E160E16821F4401197
:10484000E160012803D1E06840F48010E060204678
:1048500000F006F8DEE741F48031DAE7BFFFBDFF84
:1048600008B500220D490092009B5B1C00938B420F
:104870000CD80369002BF7DA0092026942F00102BA
:104880000261009A521C00928A4201D9032008BD9D
:104890000269D207F5D1002008BD0000400D0300D9
:1048A000816821F0010181600020704700EB411018
:1048B000064AC0F81025D0F8001521F0804141F0DB
:1048C0000041C0F80015002070470000000008807B
:1048D00008B5D0F8402422F02E020092D20405D46C
:1048E000012909D1009941F4805103E021B90099CF
:1048F00021F48051C0F84014002008BD816841F0C7
:10490000010181600020704708B500220C49009227
:10491000009B5B1C00938B420AD80369002BF7DADB
:10492000009210220261009A521C00928A4201D920
:10493000032008BD0269D206F5D4002008BD00009E
:10494000400D030018B500230D4A0093009C641C21
:10495000009494420CD80469002CF7DA00932023C9
:1049600043EA811101610099491C0091914201D9EA
:10497000032018BD01698906F5D4002018BD000088
:10498000400D0300D0F8080480B2704708B5D0F895
:1049900040040090C0F3414008BD406900F00100B0
:1049A000704718B5002200EB41110092D1F80025A4
:1049B000D1F80035C2F381428468DB0FA40600D52C
:1049C0001BB34FF47A736AB1022A0BD0D1F80025D9
:1049D00042F08042C1F80025D0F8100410F47F0F97
:1049E0002BD00CE0D1F8002542F08042C1F8002520
:1049F0008268920609D4C06A10F47F0F07D0D1F8FC
:104A0000000540F00040C1F80005002018BDD1F8B5
:104A1000000520F00040C1F80005D1F8000540F085
:104A20000040C1F800050098401C00909842ECD866
:104A3000D1F800050028F6DBE7E7D1F8000520F003
:104A40000040C1F80005D1F8000540F00040C1F871
:104A500000050098401C00909842D6D8D1F8000577
:104A60000028F6DBD1E700002DE9F0431E46DDE922
:104A70000785002700EB41147B1EDDF82490C4F865
:104A8000083505B3012D39D0022D1CD0032D2ED0B1
:104A90005FF00107D4F80C3543F00203C4F80C357D
:104AA000D0F8183401F00F0C012101FA0CF10B437E
:104AB000C0F81834816941F00071816111062AD56E
:104AC0004FF4004128E040F29D43C4F80C35130632
:104AD00005D500BFD4F80C3543F4807318E0C36BE0
:104AE000DB05D7D5D4F80C3543F0600310E040F275
:104AF0009D63C4F80C351306ECD4CBE740F22523B4
:104B0000C4F80C351306C5D5D4F80C3543F4C0737E
:104B1000C4F80C35BEE70021FFF738FFB8F1020FEB
:104B200004D1022802D04FF4003000E000204FF002
:104B3000FE5303EA86534FF4F04606EAC2221343BB
:104B40004FF4402202EA85421343C9F30A02134399
:104B50000B430343C4F80035032D01D0012D05D1CB
:104B6000D4F8000540F00050C4F800053846BDE810
:104B7000F083D0F8140480B27047F8B54C78C56B58
:104B80004FF48073ED0515D50D799DB9012A01D03B
:104B90006AB10FE0CD790DB1022D0BD100EB4415B8
:104BA000D5F80C6526F07006C5F80C6502E04D7965
:104BB000012D0DD04E697EB10D8977197F1EB7FB8F
:104BC000F5F7BFB29F4208D91F462B020B6104E0E4
:104BD0002146FFF76BFE6EE00127CB781BB10B89F6
:104BE0007B430B6101E033460E61C3F312056FF0A6
:104BF000604303EAC7431D438B7A4FF0C04606EA81
:104C000043731D4300EB4413C3F8105512B1CC6835
:104C1000C3F81445D0F80844D3F8005544F3000411
:104C200025F00055C3F80055D3F80055641C45EA3B
:104C30004474C3F80045D3F8004524F08044009440
:104C4000CC78002C009C02D044F4004401E024F411
:104C5000004444F000440094C3F800455ABBCA78AD
:104C60004ABB4A693AB3CB7933B1012B0FD0022B3F
:104C700002D0032B17D10AE0D21CC36AC2F38F0201
:104C80009BB293420FD2826942F020020AE0D21C0A
:104C9000D0F81034C2F38F029BB2934203D28269E0
:104CA00042F080628261002200928A8A93B24A783E
:104CB000C96800F035F90020F8BD00002DE9F04189
:104CC0000025DDF81880174604462E46C0F8005E21
:104CD000806B40F40010A063A06B20F40020A06360
:104CE000A06B20F48020A063E06BC00501D5012BF0
:104CF00004D0D4F8000420F0040103E0D4F8000448
:104D000040F004012046C4F800141021FFF71AFEF9
:104D100000B101252046FFF7F7FD00B10125002075
:104D2000411E06E004EB4012C2F80815C2F80C65FB
:104D3000401C8742F6D8A6616161E06BC00506D5CC
:104D40004FF4007060620C48A0620C4804E08020C0
:104D500060620B48A0620B48C4F80001B8F1000F74
:104D600003D1A06940F01000A061A0690649084382
:104D7000A0612846BDE8F081000200010003E000C8
:104D800080006000E0004000080020A3D0F800246C
:104D900022F00302C0F80024D0F8002401F003033D
:104DA0001A43C0F80024012902D0022903D006E0EA
:104DB0004BF6803101E041F27071C0F8041400201C
:104DC0007047416980690840704730B5034608461E
:104DD000940802F00301002203F5805303E01D68EC
:104DE00040F8045B521CA242F9D300290BD01C6886
:104DF0000022D50024FA05F3491E521C090400F8CC
:104E0000013B090CF5D130BD38B50446D0F840045B
:104E100020F02E00009040F48070C4F8400464201C
:104E200004F58864FBF760FD009820F48070206032
:104E30000A20FBF759FD002038BD70B50446C06854
:104E4000002520F0C040E060012901D079B120E0C8
:104E5000E06840F00050E0600120FBF745FD60692C
:104E60006D1C10F0010F10D1322DF5D30DE0E0686C
:104E700040F08040E0600120FBF736FD60696D1C6A
:104E800010F0010F01D0322DF5D3322D01D00020CA
:104E900070BD012070BD38B50025044600958068BE
:104EA00020F00100A06010212046FFF74BFD00B16B
:104EB00001252046FFF728FD00B10125002004EB65
:104EC0004011D1F8002522F0802242F08042C1F842
:104ED0000025401C0F28F2D900204FF47A7304EB10
:104EE0004011D1F8002522F4004242F04042C1F8BE
:104EF0000025009A521C00929A4203D8D1F800254E
:104F0000002AF6DB401C0F28E9D94FF0FF30C4F827
:104F100014046061A06840F00100A060284638BD1C
:104F200010B5029C74B9DB1C9C0800EB0230002316
:104F300000F5805004E000BF51F8042B02605B1CB8
:104F4000A342F9D3002010BDFEE70907090E00288F
:104F500004DB00F1E02080F80014704700F00F003F
:104F600000F1E02080F8141D7047000010B50446E1
:104F70000020E070401E6063204600F02FFA08B168
:104F8000042010BD04F2362000F0F9F9A0F52A4102
:104F9000553901D0032010BD94F83800E92805D018
:104FA000EB2814D194F83A00902810D104F16E0047
:104FB00000F0DAF90749B1EB002F06D004F18A00BE
:104FC00000F0D2F90449884201D1002010BD02202E
:104FD00010BD0000004641544641543330B5002115
:104FE000054B0C4603EB01121568854200D1146095
:104FF000491C0229F6D330BDE4090020084910B548
:105000000B5C002253B901220A540A1801EB8000FC
:10501000127B40680168104688470246104610BD62
:10502000040A002030B4054D2C1805EB8000247BC9
:10503000406885682046AC4630BC6047040A0020C2
:10504000044A111802EB8000097B40684268084658
:1050500010470000040A002030B4054D2C1805EB61
:105060008000247B4068C5682046AC4630BC604761
:10507000040A00202DE9F74181B090460298009083
:10508000684600F04FF9040003D50B2004B0BDE8DA
:10509000F0810D4E002756F824501DB12846FFF729
:1050A0009DFF2F700198002800D0077046F824005B
:1050B00002D0B8F1010F01D00020E7E7002201A9DA
:1050C00002A800F003F8E1E7240000202DE9FF41E9
:1050D000002790460E460F6000F024F9050003D526
:1050E0000B2004B0BDE8F0818B4850F825409CB1FE
:1050F0003460207808F0FE0620B16078FFF7A0FF4A
:10510000C1070BD02770E8B2B8466070FFF776FF92
:10511000C10708D00320E4E70C20E2E70EB1400706
:1051200004D40020DDE71EB1400701D50A20D8E7EE
:10513000002631462046FFF719FF022822D100251C
:105140004FEA0D0704EB051090F8FA1100F5FB701B
:1051500019B1083000F008F900E0002047F82500F8
:105160006D1C042DEED3002557F8256036B131466D
:105170002046FFF7FBFE022801D203E003206D1C4E
:10518000042DF1D3042809D002286DD204F1430084
:1051900000F0F5F8B0F5007F66D101E00120A0E74E
:1051A00004F14E0000F0EBF818B904F15C0000F0D7
:1051B000DBF8206294F84850A570012D01D0022D33
:1051C00052D1454394F845006081E8B3411E08423E
:1051D0004AD104F1490000F0D2F82081000743D100
:1051E00004F14B0000F0CBF8070004D104F15800A3
:1051F00000F0BAF8074604F1460000F0C0F80100DC
:1052000032D02389481900EB131297422CD3B81AD5
:105210006789B0FBF7F0B8B103274FF6F57C60451E
:1052200000D8022740F6F57C604500D80127801C95
:10523000324422633144E061C4E90961032F15D08F
:1052400013B12944E16200E00EE0022F1FD000F00C
:10525000010100EB400001EB500000BF216A00F2A9
:10526000FF10B1EB502F14D20D203AE704F1620089
:1052700000F085F80028F7D120890028F4D104F146
:10528000640000F071F8E062E0698000E6E7400049
:10529000E4E74FF0FF306061206180202071032F30
:1052A0002CD104F1680000F06AF8012826D1711CA5
:1052B000204600F093F808BB84F8048004F23620FE
:1052C00000F05DF8A0F52A41553917D104F13800F6
:1052D00000F04AF81149884210D104F5077000F037
:1052E00043F80F49884209D104F5087000F03CF8F2
:1052F000606104F5097000F037F8206106492770F5
:10530000091F4888401C4880E0802046C4F8188067
:10531000FFF764FE05E700002400002052526141BF
:105320007272416110B504464FF0FF302268002AC6
:1053300013D0114600E0891C0B88202B0ED33A2B8A
:10534000F9D132F8023B303B0A2B06D28A4204D113
:10535000022B02D2891C1846216010BD014800783A
:1053600010BD000020000020C178827842EA0121AF
:105370004278007842EA012140EA012070474178F2
:10538000007840EA012070470024FBF7F9FDFDF7A3
:10539000FDFCFCF7A9FF10480E494FF400620160C4
:1053A000002141608160C0E9031241618161FCF725
:1053B00087FFFCF7C7FF4FF44870FBF795FA42F2FE
:1053C0001075641CAC4201D1FBF77EFAFCF7DAFFE2
:1053D000F7E70000002C01404C00002070B50446A7
:1053E000406B0D460026A8420FD0204600F00FF873
:1053F00006000AD1607801232A4604F13801FFF73C
:1054000011FE08B1751E01266563304670BD2DE999
:10541000F0410446C0780027F8B1656B04F138010B
:10542000607801232A468846FFF716FE08B1012757
:1054300013E00020E070A06A216A281A88420CD28A
:10544000A67808E0206A0123054460782A46414690
:10545000FFF702FE761E022EF4D23846BDE8F08138
:105460004FF04070E1EE100A70470000C52C0008B4
:105470005B2D0008352D0008612D0008E52C000883
:10548000DD4600088947000845470008A147000895
:10549000E1460008000000000000000001020304D3
:1054A000060708094D534300C854000800000020B7
:1054B0004C000000C4010008145500084C000020F6
:1054C0002C6A0000E001000800010000000000005C
:1054D00000000000000000000100000010000000BB
:1054E000000000000024F4000000000000000000A4
:1054F00000000000A45400080800000099390008CA
:105500004F390008A93800089D3A00086141000899
:045510000000000097
:040000050800018965
:00000001FF
