:020000040800F2
:10000000D0980020450100089B5B000811460008BD
:10001000855B00088D080008F39B000800000000C5
:10002000000000000000000000000000157800083B
:10003000CB09000800000000A5630008517F0008FC
:100040005F0100085F0100085F0100085F01000810
:100050005F0100085F0100085F0100085F01000800
:100060005F0100085F0100085F0100085F010008F0
:100070005F0100085F010008890900085F010008AE
:100080005F0100085F0100085F0100085F010008D0
:100090007D9B00085F0100085F0100085F01000808
:1000A0005F0100085F0100085F0100085F010008B0
:1000B000D17F00085F0100085F0100085F010008B0
:1000C0005F010008154600085F0100085F01000895
:1000D0005F010008FD8400085F0100085F0100085F
:1000E0005F0100085F0100085F0100085F01000870
:1000F0005F0100085F0100085F0100085F01000860
:100100005F0100084D6900085F0100085F010008F9
:100110005F0100085F0100085F0100085F0100083F
:100120005F0100085F0100085F01000895090008F1
:10013000DFF80CD000F0CCFA0048004789BD000879
:10014000D09800200648804706480047FEE7FEE7B3
:10015000FEE7FEE7FEE7FEE7FEE7FEE7FEE7FEE777
:10016000CD7F000831010008202A04DB203A21FA63
:1001700002F00021704721FA02F3D040C2F12002C0
:10018000914008431946704740EA01039B0703D09A
:1001900009E008C9121F08C0042AFAD203E011F8C6
:1001A000013B00F8013B521EF9D27047D2B201E088
:1001B00000F8012B491EFBD270470022F6E710B56C
:1001C00013460A4604461946FFF7F0FF204610BDC5
:1001D00070B521F0004303430CD0C1F30A5500244D
:1001E000D5EB040564EB0403D617AD1AB34102DB6B
:1001F0000020014670BD201841EB025170BD0EB5C4
:1002000040F2334102910021CDE900110A460B462C
:1002100000F058F803B000BD30B50B460146002091
:100220002022012409E021FA02F59D4205D303FAB8
:1002300002F5491B04FA02F52844151EA2F1010239
:10024000F1DC30BD2DE9F05F0546002092469B466B
:1002500088460646814640241BE0284641464746DC
:100260002246FFF781FF53465A46C01A914110D3E8
:1002700011461846224600F03DFA2D1A67EB010898
:100280004F4622460120002100F034FA17EB000906
:100290004E41201EA4F10104DFDC484631462A46C7
:1002A0004346BDE8F09F10B5141E73F1000408DA50
:1002B000401C41F1000192185B411A4301D120F02A
:1002C000010010BD2DE9F04D92469B4611B1B1FAE7
:1002D00081F202E0B0FA80F22032904600F00AFA91
:1002E00004460F4640EA0A0041EA0B0153465A46CB
:1002F000084313D0114653EA010019D0C8F1400257
:100300005046FFF731FF05460E46504659464246D5
:1003100000F0F0F9084305D0012004E020463946FA
:10032000BDE8F08D0020054346EAE0762C433743D4
:100330000A986305E40AA0EB08000022FD0A44EADB
:1003400047540A3002D500200146E9E7010510199B
:100350006941DDE9084500196941BDE8F04DA2E7B2
:100360002DE9FE4F804681EA0300C00F0C46009045
:1003700021F0004123F00045B8EB0200A94105D26D
:100380004046214690461C460B46024623F000405C
:10039000104347D0270DC7F30A00C3F30A51029058
:1003A000401A019040286BDAC3F3130040F4801B1D
:1003B0000098924620B10023D2EB030A63EB0B0BAB
:1003C00001985946C0F14002504600F093F90646A4
:1003D0000D4650465946019A00F09BF910EB080073
:1003E0006141002487EA115284EAE7731A4340D03E
:1003F000009A62B3019A012A4FEA075215DC001BEA
:1004000061EB02014FF0004202EA0752CDE90042DF
:10041000001C41F5801132462B46FFF753FF03B015
:10042000BDE8F08F40462146F9E7001B61EB020171
:10043000001C41F5801300185B412018A2F500173D
:1004400047EB030140EAD570B6196D4111E06D0824
:100450004FEA360645EAC0754FEA0752001B61EBCA
:100460000201001C41F5801149084FEA30000019D3
:10047000514132462B4603B0BDE8F04FFFF713BFA2
:100480000098012240000023D0EB020263EBE073EE
:10049000009821464FEAE074B8EB000061EB0401DC
:1004A000E9E783F000435BE781F0004158E72DE97D
:1004B000FE4F81EA030404F0004421F0004100945F
:1004C0004FF0000B23F0004350EA01045ED052EAE3
:1004D00003045BD0C3F30A54C1F30A552C44A4F2BD
:1004E000F3340194A0FB0254C1F3130141F48011D1
:1004F000C3F3130343F4801301FB024400FB034ED8
:10050000840A970A44EA815447EA8357A4FB0768A0
:1005100002958D0A05FB07854FEA932C04FB0C54CA
:100520002705029D4FEA065847EA1637B5EB08053E
:100530006EEB070C870E920E47EA811742EA831290
:10054000A7FB0201B6EB0B0164EB00042B0D43EAA1
:100550000C335E1844EB1C50DA465146E7FB0201AF
:10056000C5F313044FEA0B3343EA14534FEA043242
:10057000019C43EA0603A4F10C040294009CCDE91B
:1005800000B4FFF79FFE03B0BDE8F08F00200146E6
:10059000F9E72DE9F04D81EA030404F0004B21F066
:1005A000004514464FF0000A23F0004150EA0502CE
:1005B00020D054EA01021DD0C5F30A570246C5F304
:1005C0001303C1F31300C1F30A5640F4801543F43A
:1005D0008013A7EB0608101BD64608F2FD3873EB14
:1005E000050002D308F1010801E092185B41B8F15F
:1005F000000F03DA00200146BDE8F08D00204FF423
:100600008011064684460EE0171B73EB050705D3E1
:10061000121B63EB050306434CEA010C49084FEA41
:10062000300092185B4150EA0107EDD152EA030015
:1006300012D082EA040083EA0501084305D0101BAA
:10064000AB4106D20122002306E000224FF0004316
:1006500002E06FF0010253101AEB06004CEB085158
:1006600010EB0A0041EB0B01BDE8F04DFFF71BBE9C
:10067000C1F30A52C1F3130140F2FF3341F4801178
:100680009A4202DA00200146704740F233439A4210
:10069000A2F2334202DC5242FFF766BD00F02AB8F4
:1006A00030B5041E71F1000404DB4FF000444042F9
:1006B00064EB0101141E73F1000405DB1C464FF0CE
:1006C0000043524263EB0403994208BF904230BD9D
:1006D000064C074D06E0E06840F0010394E807008F
:1006E00098471034AC42F6D3FFF726FDE4DC00084F
:1006F00004DD0008202A04DB203A00FA02F1002081
:1007000070479140C2F1200320FA03F3194390404F
:100710007047202A06DBCB17203A41FA02F043EA61
:10072000E07306E041FA02F3D040C2F120029140AA
:1007300008431946704770B58C1810F8015B15F026
:10074000070301D110F8013B2A1106D110F8012B43
:1007500003E010F8016B01F8016B5B1EF9D12B0768
:1007600005D40023521E0DD401F8013BFAE710F81E
:10077000013BCB1A921C03E013F8015B01F8015B0B
:10078000521EF9D5A142D8D3002070BD2DE9F04109
:10079000144D0024A878401C41B21348A970007879
:1007A000401E814200DDA8706878401C40B268702D
:1007B000032812DD03200D4E0D4F687095F90200DD
:1007C00006EB8411204407EB80104022C03805F06E
:1007D000DAF9641CE4B2042CF0D3BDE8F04100F077
:1007E0008DB90000940000204C000020243F002020
:1007F0002426002010B5074C0548402294F9021029
:1008000000EB8110044905F0BEF90020207010BDF6
:100810002426002094000020540000202DE9F041FF
:10082000124D0024A878401E41B2A970204600292C
:1008300000DCA8706978491E49B26970002911DC92
:100840000B4E0C4F687000BF95F9020006EB841147
:10085000204407EB8010402205F095F9641CE4B2B7
:10086000042CF1D3BDE8F04100F048B99400002019
:10087000243F00202426002010B500F0A7F8BDE892
:100880001040014806F04CBE54000020FEE7000076
:100890002DE9F04190B08046402221496846FFF79B
:1008A00073FC08F104021FA1684609F0D5F91F4C3A
:1008B00000266846666000F099FB606020230622EF
:1008C00041461BA009F05AFE1B4F1C4D401C01D095
:1008D000112008E020230622414619A009F04EFE0F
:1008E000401C05D0102020802F6010B0BDE8F081A2
:1008F00020230522414614A009F040FE401C02D0EE
:10090000268013480AE020230722414611A009F05F
:1009100035FE401CE9D02020208010482860E4E704
:1009200088CF0008303A2F2573000000A000002077
:1009300046315F353132000088D900080C020020B2
:1009400046315F313238000046305F3136000000FA
:10095000B0DC000846345F313032340024DB00085C
:100960000848002122220170417042600173642214
:10097000028241820122416102764176817605F050
:10098000EFBB000044580020014800F003BC000009
:1009900010040020014800F0FDBB00007803002097
:1009A00030B590F840500124AC40C56B6C600468D1
:1009B00063604368102B036803D099600068C260CD
:1009C00030BD9A600068C16030BD704710B50BF053
:1009D000B1FB08B119A000E01CA009F02DF91F4CD3
:1009E000A0680BF04BFF90B11DA009F025F921A2E2
:1009F0000121002005F0C6F921A20221002005F006
:100A0000C1F9BDE810404FF47A7009F0CFBF20A0C3
:100A100009F012F9208850B1102808D0112806D00A
:100A2000202809D16068BDE8104006F02FBD60683D
:100A3000BDE8104006F0E2BC10BD000053454E4436
:100A400020494E4954204F4B0D0A000053454E4457
:100A500020494E4954204552520D0A00A000002062
:100A6000464C41534820494E4954204552520D0AA4
:100A700000000000457265617365206572720000B8
:100A8000436865636B2066696C65206E616D650007
:100A9000464C41534820494E4954204F4B0D0A00C3
:100AA00072B6FEE710B5012208A109480AF072FBF0
:100AB000084C011E607004D007A009F0BDF86078F2
:100AC00010BD0AA009F0B8F8F9E70000303A0000BC
:100AD0003C1500204C0000204D4F554E54205446EC
:100AE000204552522025640D0A0000004D4F554EFE
:100AF00054205446204F4B0D0A00000038B500200A
:100B000005F064F900212022084605F00BF92022A7
:100B10000021012005F006F920220021022005F025
:100B200001F920220021032005F0FCF800210846ED
:100B300005F054F80021012005F050F800210220B2
:100B400005F04CF80021032005F048F80021174A71
:100B5000084605F017F9154A8DF8000040320121CA
:100B6000002005F00FF9114A8DF8010080320221B2
:100B7000002005F007F90D4A8DF80200C03203216C
:100B8000002005F0FFF80A4C8DF803000121607881
:100B900005F024F894F901001DF80020102A03D96B
:100BA000C0B2012105F0BEF838BD0000243F00208E
:100BB0009400002070B50A4D0A4E002405EB841104
:100BC00006EB8410402204F0DEFF641CE4B2042C27
:100BD000F4D3FFF793FF04490320087070BD0000B1
:100BE000243F0020242600209400002010B50A4C49
:100BF0002078112807D0212802D0412808D105E00B
:100C0000FFF7C4FD04E0FFF709FE01E0FFF7F2FD86
:100C10000020207010BD00009C00002000B591B0A5
:100C2000124808F0E7FF002005F0D0F8002110A2DC
:100C3000084605F0A7F80D48FFF72AFE0E480068A1
:100C4000FFF7DDFA6FF00902FFF7C2FA02460B4622
:100C50000AA1684609F000F86A460021302005F034
:100C600091F808490520087011B000BD540000201B
:100C700046696C6500000000A4000020252E326645
:100C80006B6200009400002010B5FFF7F5FD0249EB
:100C90000020087010BD00009400002010B5002056
:100CA00005F094F800212022084605F03BF82022A8
:100CB0000021012005F036F820220021022005F055
:100CC00031F820220021032005F02CF800210846ED
:100CD00004F084FF0021012004F080FF00210220A5
:100CE00004F07CFF0021032004F078FF00210AA219
:100CF000084605F047F80C4A0121002005F042F8AB
:100D00000246102803D90121084605F00BF80749CF
:100D10000120087010BD000043757272656E74206A
:100D200046696C653A0000005400002094000020E1
:100D3000074808490278312A02D0412A04D101E04B
:100D4000022200E004220A700021017070470000B6
:100D50009C0000209400002010B50EA10F480AF05E
:100D6000E1FA0F4C011E60700DD00EA008F064FF78
:100D700008A00AF062F96070011E06D00EA008F00B
:100D80005BFF607810BD12A000E015A008F054FFD2
:100D9000F7E70000303A2F7379730000B425002084
:100DA0004C000020535953204449522045525220B0
:100DB00025640D0A00000000435245415420535958
:100DC0005320444952204552522025640D0A000008
:100DD00053595320444952204F4B0D0A0000000044
:100DE00043524541542053595320444952204F4BBC
:100DF0000D0A000010B5FFF7AFFF00F041F8BDE8A5
:100E0000104000F001B8000010B592B00020109022
:100E100040211148FFF7D1F9132210A113480AF01D
:100E2000DFF90D4C10AB083C4022607069460F485A
:100E30000AF0AAFA6070109818B1C2B20649684662
:100E400002E00E2204490AA004F09DFE07480AF0C1
:100E5000ABF812B010BD000054000020303A2F73E0
:100E600079732F4C6173742E747874009025002070
:100E70004E4F2046494C452043484F4F53450000B4
:100E80002DE9F04790B040223B496846FFF77CF9D6
:100E90003A4C81204FF00008E0610DF10300A061A1
:100EA0008DF8038036A1A4F128000AF03BFA354DF5
:100EB000011E68700DD034A008F0BEFE2F49002737
:100EC00037A339A2A1F128000AF085F8687020B193
:100ED00049E036A008F0B0FEF0E7A06900780028ED
:100EE00041D0394636A008F0A7FE09F057FD234E41
:100EF000402120363046FFF760F93046E9463A4651
:100F000034A10DF1030308F0A7FEA06980F800806A
:100F100001200746287018E0394629A008F08CFE09
:100F200009F03CFD06EB871082464021FFF745F9AA
:100F3000504609F103033A4626A108F08DFEA06948
:100F40007F1CFFB280F800802F700C49A1F12800AF
:100F50000AF051F8002803D1A06900780028DBD1FD
:100F600010B0BDE8F0871DA008F066FE03482838E1
:100F70000AF028F8F4E7000048CF00080426002013
:100F8000303A2F004C0000204F50454E20524F4F1A
:100F900054204449522045525225640D0A00000055
:100FA000462A2E62696E0000000000004F50454E38
:100FB00020524F4F5420444952204F4B0D0A0000FD
:100FC00046494E442042494E2D2564204F4B0D0A80
:100FD00000000000253033645F2573004E4F20422F
:100FE000494E2046494C450D0A00000010B5014607
:100FF000112206480AF0F4F8054C60700348C068F6
:101000006060024809F0D0FF606810BD6C250020C8
:101010004C00002010B590F821100022022905D0C4
:101020000421816380F82020012010BD01680B6835
:1010300023F00E030B6001680B6823F001030B60C3
:1010400090F84030C46B012101FA03F3636080F82B
:10105000211080F82020104610BD00002DE9F05F1F
:1010600090F821100024022903D004218163012477
:1010700085E001680A6822F00E020A6001680A68C9
:1010800022F001020A603F4E3E4FB215DFF8F4C075
:10109000DFF8F090DFF8ECA0DFF8E8B0DFF8E4E08C
:1010A0000168783F13011502ACF1640CA9F15009F5
:1010B000AAF13C0AABF1280BAEF1140E4FF48018E4
:1010C000B14227D9B9420ED0614512D049451DD051
:1010D000514518D0594518D0714501D1424615E007
:1010E000294EB14201D1012210E0274E1436B142FF
:1010F00001D110220AE0244E2836B14206D0224AFD
:101100003C32914201D11A4600E02A461E49091F8D
:101110000A602BE0B94213D0614517D0494522D06F
:1011200051451DD059451DD0714501D142461AE0A7
:10113000B14202D14FF0807215E0134EB14201D19D
:10114000012210E0104E1436B14201D110220AE003
:101150000D4E2836B14206D00B4A3C32914201D1A5
:101160001A4600E02A46074980394A60012180F882
:101170002110002180F82010416B01B188472046E2
:10118000BDE8F09F800002400804024090F8210072
:10119000704700002DE9F05FC16B0A6801680B68B9
:1011A000046C4FF0040808FA04F8844D844E854F0F
:1011B000DFF814C2DFF81492DFF814A2DFF814B2DB
:1011C000DFF814E218EA020F65D05FEA437862D5CF
:1011D0000A68920603D40A6822F004020A60DFF863
:1011E000F0814FF48062016808F1140813011402C1
:1011F000414524D9A9420DD0B1420FD0B9421AD0ED
:10120000614515D0494515D0514501D1120312E071
:10121000594501D104220EE0714501D140220AE076
:101220006D4D1435A94206D06B4A2832914201D146
:101230001A4600E022466749091F0A6029E0A942D0
:1012400013D0B14215D0B94220D061451BD04945D9
:101250001BD0514502D14FF4800217E0414502D125
:101260004FF0806212E0594501D104220EE0714531
:1012700001D140220AE0584D1435A94206D0564A01
:101280002832914201D11A4600E022464B490839E2
:101290004A60C16A71E04FF0020808FA04F818EADF
:1012A000020F70D05FEA83786DD50A68920606D483
:1012B0000A6822F00A020A60012180F82110DFF892
:1012C00010814FF40072016808F114081301140230
:1012D000414524D9A9420DD0B1420FD0B9421AD00C
:1012E000614515D0494515D0514501D1120312E091
:1012F000594501D102220EE0714501D120220AE0B8
:10130000354D1435A94206D0334A2832914201D1D5
:101310001A4600E022462F49091F0A6029E0A94227
:1013200013D0B14215D0B94220D061451BD04945F8
:101330001BD0514502D14FF4001217E0414502D1B4
:101340004FF0007212E0594501D102220EE07145C2
:1013500001D120220AE0204D1435A94206D01E4AB0
:101360002832914201D11A4600E022461349083939
:101370004A60002180F82010816A00291CD0BDE855
:10138000F05F0847FFE70825A540154214D01A076B
:1013900012D50A6822F00E020A6090F84020C36B52
:1013A000012101FA02F25A60816380F821100021C4
:1013B00080F82010016BE0E7BDE8F09F08000240D4
:1013C0001C0002403000024044000240580002402D
:1013D0006C000240080402401C04024030B560B1B9
:1013E0001A4B026814219A4209D2194B1344B3FBD9
:1013F000F1F18900016417490AE0012030BD134B67
:101400005B421344B3FBF1F1890001640F490839D1
:10141000C163022180F82110136843F6F0718B43F9
:10142000F0E901142143D0E902452C43214304692A
:1014300021434469214384692143194311600021F8
:101440004163012242770177084630BD080402401B
:10145000F8FFFDBF0000024070B5044690F8200080
:10146000002501280CD0012084F8200094F8216088
:101470000020012E06D084F820000225284670BDE9
:10148000022070BD022684F82160A06320680668EF
:1014900026F0010606602046FFF782FAE06A00287F
:1014A0002068016802D041F00E0106E021F004013D
:1014B00001602068016841F00A010160206801684C
:1014C00041F001010160D9E770B5044600F0A4F9CC
:1014D0000546601C02D004480078044400F09CF9E2
:1014E000401BA042FAD370BD000000202DE9F0435C
:1014F00000233E4F0F2574E001229A400A406ED02F
:1015000023F00304E619D6F808809C074FEA147C00
:1015100005FA0CF909EA0804DFF8D480404502D145
:101520004FF0000824E0DFF8CC80404502D14FF0B6
:1015300001081DE0DFF8C080404502D14FF00208ED
:1015400016E0DFF8B880404502D14FF003080FE005
:10155000DFF8AC80404502D14FF0040808E0DFF826
:10156000A480404502D14FF0050801E04FF0060885
:1015700008FA0CF8A04515D1D6F808C02CEA090CD9
:10158000C6F808C0204E346894433460341D266881
:1015900096432660241D266896432660241D2668EF
:1015A00096432660FF2A01D8064601E000F10406B2
:1015B0004FEA830401D9A4F12004D6F800C005FA4B
:1015C00004F82CEA080C4FF0040808FA04F84CEA76
:1015D000080CC6F800C0C46824EA0204C46003F121
:1015E000010331FA03F287D1BDE8F0830000014026
:1015F00000080140000C01400010014000140140AF
:1016000000180140001C0140000401402DE9F84F82
:10161000DFF8C891002409F1040A0AF1040B2346FB
:101620000F270BF1040ED1E00125A54006EA0502C3
:10163000AA4276D1DFF8A8C14E68A6EB0C08664531
:101640002BD00DDC032E34D005DC36B3012E19D09F
:10165000022E2FD11BE0112E16D0122E2AD119E006
:10166000B8F5881F19D006DCB8F5803F15D0B8F55D
:10167000801F1FD111E0B8F5001F0ED0B8F5041F70
:1016800018D10AE0CB6815E0CB681B1D12E0CB68CF
:1016900008330FE0CB680C330CE08B682BB1012BC7
:1016A0004FF0080303D0456104E0042302E0056124
:1016B00000E00023FF2A01D8064601E000F10406FD
:1016C0004FEA840501D9A5F12005D6F8008007FA74
:1016D00005FC28EA0C0803FA05F548EA0508C6F8EF
:1016E00000804D68ED0070D53E4DAE6946F00106B4
:1016F000AE61AD6924F0030605F0010500953A4D91
:1017000006EB050CDCF80850A607360F07FA06F8BA
:1017100025EA0805DFF8D480404503D14FF00008E2
:1017200025E052E0DFF8C880404502D14FF00108C3
:101730001DE0DFF8C080404502D14FF0020816E0FE
:10174000DFF8B480404502D14FF003080FE0DFF826
:10175000AC80404502D14FF0040808E0DFF8A080DB
:10176000404502D14FF0050801E04FF0060808FAA5
:1017700006F848EA0508CCF808804D68D9F80060FA
:10178000ED034D4601D5164300E096432E604D68AB
:10179000DAF80060AD03554601D5164300E09643E4
:1017A0002E604D68DBF80060ED025D4601D5164302
:1017B00000E096432E604D68DEF80060AD0275468D
:1017C00001D5164300E096432E60641C0A68164655
:1017D000E2407FF429AFBDE8F88F0000000401402B
:1017E00000001110001002400000014000080140FC
:1017F000000C01400010014000140140001801409D
:10180000001C01408068084000D0012070470AB1E8
:10181000016170470904FBE70148806870470000D8
:1018200000000020704770472DE9F0470268002152
:101830005368C66A90F83E4090F83D50102C12D084
:10184000402C10D0046C002C7DD05469E443A607D2
:101850007AD4DE43B60577D4036C03B19169BDE851
:10186000F04703F0AFBB976951694FF42A0CC943A5
:101870005FEAC1784FF02A4904D066452AD04E4528
:1018800028D010E0DE43B6050DD4C16A614501D110
:10189000012103E0C16A494501D10821C162BDE8C7
:1018A000F04703F0A5BA0E0716D4DE43B60513D4ED
:1018B000416CC9B21161416B09B1896A29B9816B67
:1018C000002907D0896A002904D00068416841F4E2
:1018D00000614160BDE8F0878E0706D4DE43B6059F
:1018E00003D4BDE8F04703F0D7B9FE43526876074A
:1018F0004FEA02521DD4002AECDB0A0608D4DA4370
:10190000520505D4490705D5BDE8F04703F068B98D
:101910004907DFD4D9438905DCD4212D05D0402CDB
:10192000D8D1BDE8F04703F0A9BABDE8F04703F00D
:1019300015B9002ACEDB4A060BD4DA43520508D487
:10194000490708D501E00DE00EE0BDE8F04703F0DF
:1019500091B84907BED4D9438905BBD4BDE8F04747
:1019600003F01FB8916970E7E10606D4D9438905F1
:1019700003D4BDE8F04703F049BB2821212D27D02F
:10198000292D25D0650655D4DD436D0552D4640755
:1019900052D590F83D30448D002C9BD01269446A9A
:1019A0002270426A521C4262428D521E4285428D12
:1019B000002A8FD12A2B8DD10268536823F48063CB
:1019C00053602222026380F83D1000F007FB81E79C
:1019D000250623D4DD436D0520D4640720D590F877
:1019E0003D30448D002CF2D0446A24781461426A60
:1019F000521C4262428D521E4285428D002AE6D11F
:101A0000292BE4D10268536823F4806353602122B8
:101A1000026380F83D1000F0E2FA5BE76107D6D47C
:101A2000D9438905D3D4418D0029D0D0416A0978A2
:101A300011610AE06107CAD4D9438905C7D4418D31
:101A40000029C4D01169426A1170416A491C41627F
:101A5000418D491E41853DE77047000070B5040087
:101A600025D094F83D00002520B984F83C5020464C
:101A700000F064FA242084F83D002068016821F019
:101A8000010101602068016841F4004101602068A3
:101A9000016821F40041016001F02EF94D4A6168AE
:101AA000914201D84C4900E04C49884201D20120C2
:101AB00070BD4B492368B0FBF1F15E6826F03F062C
:101AC0000E435E606368934206D94FF496735943A0
:101AD0004FF47A73B1FBF3F12368491C1E6A26F0B8
:101AE0003F06314319626168914210D84900401E97
:101AF000B0FBF1F2521CC2F30B02042A01D2042003
:101B000022E0B0FBF1F0401CC0F30B001CE0A26827
:101B1000F2B301EBC10303EB0116431EB3FBF6F373
:101B20005B1C43F480431B0549D092B301EBC10217
:101B300002EB0111401EB0FBF1F0401CC0F30B00A2
:101B400040F4804040F400402168CA694CF6FF73BD
:101B50009A431043C861D4E9071001432068026822
:101B600022F0C00211430160D4E90301014320685F
:101B7000826848F2FF339A4311438160D4E905013A
:101B800008432168CA6822F0FF021043C86001E0E0
:101B90000EE016E02068016841F001010160256453
:101BA000202084F83D00256384F83E50002070BD5D
:101BB00001EB4106431EB3FBF6F35B1CB3E70120C8
:101BC000C2E701EB4101401EB0FBF1F0401CC0F345
:101BD0000B00B7E7A086010080841E0000093D00CD
:101BE00040420F00704770471CB5094841780029F2
:101BF0000CD0084A0078802102EB4020CDE900019A
:101C0000012340227821044800F0D4F81CBD0000D4
:101C1000260000203C050020BC030020F8B500256C
:101C20000446009590F83D0020287CD14E4846F2AD
:101C3000A8160068B0FBF6F000EBC00606EB00103B
:101C4000202600900098401E009010D020688069E7
:101C5000C0438007F6D594F83C00012863D00120EA
:101C600084F83C0020680768FF070AD00DE044F8BC
:101C7000305F6673A573206940F0200020612573F2
:101C800037E0076847F0010707602068076827F416
:101C900000670760212084F83D00102084F83E0092
:101CA000256462626385608D20853048E0626164EE
:101CB000208DC8B3606BF0B12D498162616B2D48F6
:101CC0000863606BC562606B45632268238D1032C8
:101CD000616A606BFFF7C0FBB0B184F83D6084F8C7
:101CE0003E5054F8400F40F0100000BF44F8040983
:101CF00025700120F8BD84F83D6084F83E5054F80A
:101D0000400F40F08000F1E784F83C5020684168C3
:101D100041F4407141602068416841F400614160D4
:101D20002068016801E01CE008E041F48061016086
:101D30002068016841F48071016010E0206801684A
:101D400041F4806101602068016841F480710160A4
:101D500084F83C502068416841F4E0614160002013
:101D6000F8BD0220F8BD00000C0000200000FFFFBD
:101D700013470008DD460008704700000A48017854
:101D800007290DD04278002A0DD0491CC9B2017034
:101D90000648042300EB810278210548FFF73EBF87
:101DA0000021417001707047260000201C050020B2
:101DB000BC0300202DE9FF4F83B00025DDE910981A
:101DC0009A46934604460095FFF726FD074694F889
:101DD0003D00202870D1554846F2A8112026006801
:101DE000B0FBF1F000EBC00101EB00100090009897
:101DF000401E009010D020688069C0438007F6D54F
:101E000094F83C00012857D0012084F83C00206859
:101E10000168C9070AD00DE044F8305F6673A57306
:101E2000206940F020002061257338E0016841F00E
:101E3000010101602068016821F400610160212036
:101E400084F83D00402084F83E002564C4F82490C6
:101E5000A4F82A80608D20853548E062208D60B32B
:101E6000606B00B333498162616B33480863606B18
:101E7000C562606B45632268238D1032616A606BB6
:101E8000FFF7EAFAD0B184F83D6084F83E5054F888
:101E9000400F40F0100000BF44F8040925700120F5
:101EA00007B0BDE8F08F84F83D6084F83E5054F8E8
:101EB000400F40F08000EFE736E02CE02320CDE932
:101EC000000753465A462046049903F027F888B184
:101ED000606BFFF7C3F8606B85622068016821F4CE
:101EE00080610160258565852068016821F0010118
:101EF0000160D4E7206841698169009184F83C5011
:101F0000416841F4807141602068416841F400619A
:101F100041600020C4E784F83D6084F83E5054F8E6
:101F2000400F40F04000B7E70220B9E70C00002066
:101F30000000FFFF13470008DD46000870B586B0BB
:101F400000250646009501950295039500681E49F7
:101F5000884237D11D4CA06940F00800A061A069FB
:101F6000694600F0080004904FF440600090122091
:101F70000190032003901648FFF748FBE06940F406
:101F80008000E061E069144C00F480000490114886
:101F900020601020C4E901058020C4E903056561C3
:101FA000A5612046E561FFF719FA08B1FEF778FD53
:101FB0007463002211462120666200F077F8212028
:101FC00000F066F806B070BD0058004000100240F6
:101FD000000C01404400024010040020704770478C
:101FE0000248816802781144816070470000002037
:101FF000074810B5016841F010010160032000F0AE
:1020000075F80F2000F006F800F024F8002010BD4D
:102010000020024070B50D4D04464FF47A712878C7
:10202000B1FBF0F00A490968B1FBF0F001F0D1FE14
:1020300048B9102C07D200222146501E00F036F875
:1020400000206C6070BD012070BD00000000002009
:102050000C0000200C4808B5816941F00101816144
:10206000816901F001010091C16941F08051C161B4
:10207000C06900F0805000900448416821F0E061A0
:1020800041F08071416008BD001002400000014035
:10209000002809DB00F01F02012191404009800067
:1020A00000F1E020C0F8001170470000F0B40E4BC2
:1020B0001B680C46C3F30223C3F10705042D00D9A6
:1020C0000425191D072901D2002300E0DB1E01268B
:1020D00006FA05F1491E214099409E40761E1640A1
:1020E0003143F0BC07F0CCBD0CED00E0064900F038
:1020F000070208684FF6FF03184040EA0220034A2F
:1021000010430860704700000CED00E00000FA0585
:1021100010B50C0607D501F0070101EB810100EBBA
:10212000C100283005E001EB810100EBC10000F5A2
:10213000B47099B232B1012202730181190C41814C
:10214000002010BD00220273C180F9E7704701EB47
:10215000810200EBC202D0F8E802D26B06F06BBB42
:1021600001EB810200EBC202D0F8E802D2F87C2138
:1021700006F0C4BB70B504460B0601F0070000EB87
:10218000800104EBC1014FF001024FF0000503D5BF
:1021900081F82920283103E081F8695101F5B471F3
:1021A000087094F8A802012808D084F8A8222068B2
:1021B00007F0DEF884F8A852002070BD022070BD40
:1021C00070B5044601F00F006268904201D9012009
:1021D00070BD0B0601F0070000EB800104EBC101AC
:1021E0004FF001024FF0000503D581F82920283176
:1021F00003E081F8695101F5B4718D70087094F8AD
:10220000A802012808D084F8A822206807F04DF918
:1022100084F8A852002070BD022070BD2DE9F05F47
:1022200004685FEA424C0B788D69B4F850C04FF0F7
:1022300000064BF68F7948F2800A48F68F7B48F209
:10224000C00E4FF480672AD54FF0020808EBC30890
:10225000C44407EB4C07E45BC4F30904A54203D371
:102260002D1B8D6101D00BE08E61066836F823507E
:1022700005EA090585F4005545EA0A0526F82350C4
:10228000520609D50D78036833F8252002EA0B02BF
:1022900042EA0E0223F8252084B30A8929E04FF090
:1022A000060808EBC308C44407EB4C07E45BC4F31F
:1022B0000904A54203D32D1B8D6101D00BE08E6173
:1022C000066836F8235005EA090585F4005545EA05
:1022D0000A0526F82350520609D40B78056835F80C
:1022E000232002EA0B0242EA0E0225F823202CB139
:1022F0004A8949690068234607F04AFC2046BDE840
:10230000F09F2DE9F05F054600680C465FEA426CDD
:1023100016468B692278B0F850C048F68F774CF299
:1023200080094FF6FF7B4FF4004E4FF4806A4FF068
:1023300000017BD54FF0020808EBC208E0440AEB2D
:10234000480C30F80C00C0F30900834211D91B1A65
:10235000A3610FD0730407D52E6836F822303B40B6
:1023600043EA090326F8223094F82420012A50D0A9
:102370004EE1A161607810B1012813D01AE02868FD
:10238000B0F85030184400EB0210B0F8042422F4E6
:10239000F842A0F80424B0F8042442F40042A0F863
:1023A000042407E02868B0F85030184400EB02100D
:1023B000A0F804146278286812B1012A11D018E03C
:1023C000B0F850100844217800EB0110B0F80C145C
:1023D00021F4F841A0F80C14B0F80C1441F40041B9
:1023E00005E0B0F850201044227800EB0210A0F86D
:1023F0000C1421782846FFF7AAFE7004B8D521787E
:102400002A6832F82100384040EA090022F8210009
:10241000FEE0626902446261E2690244E2612369AA
:10242000226A9A4203D31846111A04E038E084F86D
:1024300024100AB110462162617811B1012923D01C
:102440002BE02968B1F850201144227801EB0211E9
:1024500001F2044148B13E280FD84208C30700D01A
:10246000521C0BEA82220A8017E00A8822F4F84202
:102470000A800A8842F40042F5E74209C30600D107
:10248000521E4EEA8222EEE72968B1F8502011442C
:10249000227801EB0211A1F8040483B22289B3E08F
:1024A0004FF0060808EBC208E0440AEB480C30F88D
:1024B0000C00C0F30900834211D31B1AA3610FD093
:1024C000730407D42E6836F822303B4043EA0903F0
:1024D00026F8223094F82420012A50D098E0A161F7
:1024E000607810B1012813D01AE02868B0F8503095
:1024F000184400EB0210B0F8042422F4F842A0F8CB
:102500000424B0F8042442F40042A0F8042407E0B4
:102510002868B0F85030184400EB0210A0F80414FA
:102520006278286812B1012A11D018E0B0F8501072
:102530000844217800EB0110B0F80C1421F4F841A4
:10254000A0F80C14B0F80C1441F4004105E0B0F808
:1025500050201044227800EB0210A0F80C142178CF
:102560002846FFF7F4FD700452D42278296831F828
:102570002200384040EA090021F8220048E0626960
:1025800002446261E2690244E2612369226A9A427A
:1025900003D31846111A216204E00AB110462162E1
:1025A00084F824106278296812B1012A22D029E027
:1025B000B1F850201144227801EB021101F20C41D4
:1025C00048B13E280FD84208C30700D0521C0BEA7E
:1025D00082220A8016E00A8822F4F8420A800A88D9
:1025E00042F40042F5E74209C30600D1521E4EEA0A
:1025F0008222EEE7B1F850201144227801EB02115B
:10260000A1F80C04628983B26169286807F0DEFAD8
:1026100021782A6832F8210048F6BF73184080F00C
:10262000300048F28003184322F821000020BDE862
:10263000F09F10B5044690F8A80201280AD00120A6
:1026400084F8A802080607D501F00701206807F002
:1026500092FA04E0022010BD206807F08AFA0020F8
:1026600084F8A80210BD01F0070101EB810100EB25
:10267000C100D0F8840170472DE9F04104460F06EF
:1026800001F0070000EB800104EBC1014FF00106EF
:102690004FF0000503D581F82960283103E081F867
:1026A000695101F5B47108700A61CB704A7802B1C2
:1026B000C881022B00D10D7194F8A802012809D01D
:1026C00084F8A862206806F025FD284684F8A85200
:1026D000BDE8F0810220FBE770B50C4601F007056C
:1026E00005EB850100EBC101C1E95F230022C1F8C0
:1026F000842181F8692181F8685101F5B47162077C
:10270000006806F027FF002070BD70B504460D4636
:1027100001F007006168884201D9012070BD2906D7
:102720004FF000064FF0010207D500EB800104EBEB
:10273000C10181F82920283107E005EB850104EB70
:10274000C10181F8696101F5B4718A70087094F86B
:10275000A802012807D084F8A822206806F0E1FE2C
:10276000680702D006E0022070BD04F52C712068D5
:1027700006F099FE84F8A862002070BD70B50C4682
:1027800001F0070505EB850100EBC101C1E90F234D
:10279000012281F84C208B6400234B6481F82920AE
:1027A00001F8285F6207006806F0D4FE002070BDC3
:1027B0001FB50446006807F0E7F9000402D520467B
:1027C00003F044FB206807F0DFF940050CD52068D2
:1027D00030F8441F21F480610180204600F01EF98A
:1027E0000021204600F035F9206807F0CDF94004BB
:1027F00005D5206830F8441F21F48041018020680D
:1028000007F0C2F9800405D5206830F8441F21F490
:1028100000510180206807F0B7F9C00414D5206882
:1028200030F8401F21F004010180206830F8401F7B
:1028300021F008010180204600F003F9206830F8FB
:10284000441F21F480510180206807F09DF90005A4
:102850003ED522680020694632F8203021F8103039
:10286000401CC0B20828F7D332F8400F40F00100F6
:102870001080206830F8402F22F00102028020688A
:10288000B0F844205205FBD530F8442F22F4806282
:1028900002800020236831F8102023F82020401CFB
:1028A000C0B20828F6D3206830F8401F41F0080174
:1028B0000180206830F8441F21F400610180206805
:1028C00030F8401F41F004010180204600F0F6F886
:1028D000206807F059F9800508D5206830F8441FB2
:1028E00021F400710180204600F0AFF8206807F065
:1028F0004BF9C00505D5206830F8441F21F48071DC
:1029000001801FBD2DE9F04186B0040004D094F889
:10291000A902002520B108E0012006B0BDE8F08141
:1029200084F8A852204600F05BF8032084F8A9023E
:10293000206806F0B1FD04F11001142288466846B3
:10294000FDF722FC94E80F0006F010FD0226D0BB34
:102950000021206807F032F9002001270FE000BFB6
:1029600000EB800104EBC10181F8297001F8280F08
:10297000C881CD700D614D61401CC0B28D61616830
:102980008142EDD8002011E000EB800104EBC10191
:1029900081F8695181F8680181F86B51C1F878516B
:1029A000C1F87C51401CC0B2C1F8805161688142BD
:1029B000EAD8142241466846FDF7E6FB94E80F008A
:1029C00006F061FD10B184F8A962A5E784F82450EF
:1029D00084F8A972206806F054FD00209DE70000ED
:1029E00008B500680B49884212D10B48C16941F40F
:1029F0000001C161C069002200F40000009011468E
:102A00001420FFF753FBBDE808401420FFF740BB3C
:102A100008BD0000005C00400010024070B5044694
:102A200080680125022801D0FEF73AF82946D4F83B
:102A3000E80206F04CF8D4F8E802BDE8704006F071
:102A400008B8D0F8E80206F02CB8D0F8E80206F092
:102A500032B810B5044690F8A80201280BD0012026
:102A600084F8A80284F82410206807F0A9F8002050
:102A700084F8A80210BD022010BDD0F8E82200F5AD
:102A80002C71104606F02FB810B5044690F8A80235
:102A9000012810D0012084F8A802206807F060F80F
:102AA00001212046FFF752FB206806F0E8FC0020D9
:102AB00084F8A80210BD022010BD000010B5044625
:102AC000D0F8E80206F04EF8A069002804D00348C8
:102AD000016841F00601016010BD000010ED00E04A
:102AE0002DE9F84305460078354CC00754D0E0691D
:102AF0000026C00008D4E06940F08050E061E06941
:102B0000012600F0805000902E480168C90512D4BB
:102B10000168804641F480710160FEF77DFE074642
:102B200005E000BFFEF778FEC01B642823D8D8F864
:102B30000000C005F6D5206A10F4407021D0A988A5
:102B400001F4407181421CD0206A1F49012220F407
:102B500040700A6000220A602062C00711D0FEF7B0
:102B60005BFE074641F2883808E000BFFEF754FEDE
:102B7000C11B414502D90320BDE8F883206A8007C4
:102B8000F4D5206A696820F44070084320621EB1C1
:102B9000E06920F08050E0612878800705D5606802
:102BA000A96820F44040084360602878C00605D535
:102BB0006068696920F48000084360600020DBE7FA
:102BC0000010024000700040400442422DE9F047EE
:102BD0000F46050061D0434E306800F00700B84250
:102BE00009D2306820F0070038433060306800F0C8
:102BF0000700B84251D128683B4C810712D54007E5
:102C000003D5606840F4E06060602878000703D571
:102C1000606840F4605060606068A96820F0F0006F
:102C2000084360602878C00728D06868012810D061
:102C30002168022810D0890700292EDA616821F066
:102C4000030101436160FEF7E7FD804641F28839E8
:102C50000DE021688903EFE78901EDE7FEF7DCFD70
:102C6000A0EB0801494502D90320BDE8F087606860
:102C7000696800F00C00B0EB810FEFD1306800F014
:102C80000700B8420BD9306820F0070038433060A5
:102C9000306800F00700B84201D00120E5E728784D
:102CA000400705D56068E96820F4E060084360608B
:102CB0002878000706D56068296920F4605040EA4A
:102CC000C100606000F038F86168084AC1F3031180
:102CD000515CC8400649086006480068FFF79AF949
:102CE0000020C2E700200240001002403EC9000858
:102CF0000C000020040000200448054900684968D1
:102D0000044AC1F30221515CC84070470C00002006
:102D1000001002404EC9000804480549006849688F
:102D2000044AC1F3C221515CC84070470C00002026
:102D3000001002404EC9000812A185B00FC98DE8ED
:102D40000F0014A0144A006804905168134801F061
:102D50000C03042B10D0082B0ED1C1F38343C903FD
:102D60001DF803000AD5516804AAC1F34041515C23
:102D70000A4A5043B0FBF1F005B070470849484398
:102D8000FAE7000002030405060708090A0B0C0D08
:102D90000E0F1010010200000010024000127A0015
:102DA00000093D002DE9F84F040070D02078C04D97
:102DB000C00749D06868C0F38100012807D068685F
:102DC000C0F38100022809D16868C00306D52868CD
:102DD000800339D560680028E7D035E06068B0F539
:102DE000803F0BD010B1B0F5A02F11D0286820F48F
:102DF00080302860286820F4802002E0286840F4B1
:102E000080302860606890B1FEF706FD06460AE053
:102E1000286840F480202860F0E700BFFEF7FCFC43
:102E2000801B642873D828688003F7D50CE0FEF770
:102E3000F3FC064605E000BFFEF7EEFC801B6428AD
:102E4000F0D828688003F7D420789A4E80074FF096
:102E500001094FF0000839D5686810F00C0F07D051
:102E60006868C0F38100022809D16868C00306D4ED
:102E70002868800714D52069012808D110E020694E
:102E8000B0B1C6F80090FEF7C7FC074605E00AE1BE
:102E9000FEF7C2FCC01B0228C4D828688007F7D5FB
:102EA0002868616920F0F80040EAC10028600DE060
:102EB000C6F80080FEF7B0FC074604E0FEF7ACFC65
:102EC000C01B022823D828688007F7D42078000781
:102ED0002CD57948A169D9B1C0F80090FEF79CFCC7
:102EE000074604E0FEF798FCC01B02280FD8686A6A
:102EF0008007F7D571484FF4FA510068B0FBF1F044
:102F0000009000BF0098411E0091FAD20EE080E0D0
:102F1000C0F80080FEF780FC074604E0FEF77CFC6A
:102F2000C01B022875D8686A8007F7D4207840074C
:102F300060D5E8690027C00008D4E86940F08050F7
:102F4000E861E869012700F0805000905C48016862
:102F5000C90513D40168834641F480710160FEF70E
:102F60005BFC824606E000BFFEF756FCA0EB0A00C1
:102F700064284ED8DBF80000C005F5D5E0680128CC
:102F80000AD008B1052813D0286A20F00100286271
:102F9000286A20F0040002E0286A40F0010028625C
:102FA000E06841F2883B98B1FEF736FC82460BE0C0
:102FB000286A40F004002862EEE700BFFEF72CFC10
:102FC000A0EB0A0159455AD8286A8007F6D50CE0CB
:102FD000FEF722FC824605E0FEF71EFCA0EB0A018C
:102FE00059454CD8286A8007F6D41FB1E86920F00B
:102FF0008050E861E06988B36968C1F38101022902
:1030000044D00228C6F8608004D0FEF705FC0446D0
:1030100038E034E0FEF700FC074604E0FEF7FCFB76
:10302000C01B02282BD828688001F7D4206AB0F58D
:10303000803F05D16868A16820F4003008436860CB
:10304000D4E908010843696821F4741108436860F1
:10305000C6F86090FEF7E0FB044606E025E000BFFE
:10306000FEF7DAFB001B022809D828688001F7D593
:103070001BE000BFFEF7D0FB001B022802D9032093
:10308000BDE8F88F28688001F4D40EE00128F7D05D
:103090006868226A00F48031914204D1616A00F4C8
:1030A0007010884201D00120EAE70020E8E7000024
:1030B0000010024000004242800442420C00002006
:1030C00000700040704700002DE9FE4304460026D2
:1030D00003200D4684F83400606C03285ED0B5F5FB
:1030E000805F5BD04FF4006700204FF08068BD42E6
:1030F0001FD18146009001900021206803F023FC3D
:10310000800113D46946204603F08EFF07000DD1DD
:103110000198400334D5B4F850000104206803F04E
:103120004DFC070002D10221206823E0A06B384348
:1031300028E01DB1A06B40F0006023E081460090C4
:1031400001900021206803F0FEFB8001EED4694667
:10315000204603F069FF0700E8D10198C0030FD5AE
:10316000B4F850000104206803F028FC0700DDD10A
:103170000021206803F06FFC0700D7D14F46D5E748
:103180004746D3E7A063A06B144F4FF0010848B146
:103190002068876384F8348001260EE0A06B40F03D
:1031A0008050EFE7211DD4E9050C0EC9CDE9005090
:1031B000CDF808C0206803F0CFFB4FF40071206801
:1031C00003F030FC28B121688F63A16B0143A16338
:1031D000012684F834803046BDE8FE83FF054000B8
:1031E00070470000F0B5426E920F0A70426EC2F353
:1031F00083624A70426EC2F301628A70426E120CA0
:10320000CA70B0F86420120A0A7190F864204A71FA
:10321000826E120DCA80826EC2F303420A72B0F847
:103220006820C2F3C0324A72B0F86820C2F380321C
:103230008A72B0F86820C2F34032CA72B0F86820CF
:10324000C2F300320A7300264E73426C4FF40075CD
:10325000012462B1012A3AD0026847499163816B27
:1032600041F08051816380F834400120F0BDB0F816
:103270006820C36E9205120D42EA93720A61C26E13
:10328000C2F3C2620A75C26EC2F302624A75C26EAE
:10329000C2F342528A75C26EC2F38242CA75C26ECE
:1032A000C2F3C2320A760A69521C42650B7E03F0F1
:1032B00007039B1C9A4042650B7A03F00F0704FA40
:1032C00007F383655B0A5A43C0E917250EE090F8BF
:1032D0006820C36E9206920A42EA13420A610A69A2
:1032E000521C92024265C0E91652056630F86C2FF6
:1032F000C2F3803201F8192F0288C2F3C6124A7055
:10330000027802F07F028A704268D20FCA70426867
:10331000C2F341720A714268C2F382624A71426822
:10332000C2F383528A714268C2F34052CA710E726C
:103330004268C2F300424A728288C2F3C0328A7283
:103340008288C2F38032CA728288C2F340320A7322
:103350008288C2F300324A738288C2F381228A7360
:103360008288C2F30122CA730079C0F34600087450
:103370004C740020F0BD0000FF054000426C0A6064
:10338000826C4A60C26C8A60026DCA60426D0A61DA
:10339000826D4A61C26D8A61006EC861002070470B
:1033A00070B50446B0F8500000250104206803F011
:1033B0005CFC18B1A16B0143A16304E0002120680B
:1033C00003F0C1FA0546C5F3432070BD90F8340000
:1033D00070470000F8B5056B04460068416B0904AE
:1033E0001BD5290719D5D4E90A56002E14D0002779
:1033F000206803F0CBFA05F8010B010A05F8011B60
:10340000010C05F8021B000E361F7F1C05F8010C8D
:10341000082FEDD3C4E90A56F8BD416B4FF0000602
:10342000C9054FF0010744D5390281632068C16B9B
:103430004CF23A129143C1632068C16A21F0010144
:10344000C16228071DD515F0220F09D0206803F0AE
:103450003DFC28B1A16B0143A1632046FFF7C0FEEC
:10346000216840F23A50886384F834702663A807D4
:1034700003D0204600F052FAF8BD204600F04FFA83
:10348000F8BD2806FCD5A80609D5206803F01EFC67
:1034900028B1A16B0143A1632046FFF7A1FEA80755
:1034A000EED12068C16A21F00801C16284F834704D
:1034B000E3E7416B490424D5290722D5D4E908560E
:1034C000002EDDD05FF0000715F8010B009015F815
:1034D000011B361F40EA0120009015F8021B40EA4C
:1034E0000140009015F8011C40EA01600090694617
:1034F000206803F05EFA7F1C082FE5D3C4E9085664
:10350000F8BD416B11F03A0FFAD0416B890703D532
:10351000A16B41F00201A163416B090703D5A16BC7
:1035200041F00801A163416B890603D5A16B41F00D
:103530002001A163416BC90603D5A16B41F01001C5
:10354000A16340F23A7181632068C16B40F23A3264
:103550009143C163206803F0B9FBA16B0843A063EA
:10356000280706D584F8347026632046FFF738FE16
:10357000F8BD2806FCD515F0300F0CD0E16B1148D2
:103580004863E06BFDF76AFD0028F1D0E06BBDE811
:10359000F84003F027BDA8070CD0216C0A48486307
:1035A000206CFDF75BFD0028E2D0206CBDE8F84000
:1035B00003F0F6BCA66384F8347026632046FFF758
:1035C00081FDF8BDE56F0008A16F000870B504002B
:1035D0000ED094F83400002518B92577204600F065
:1035E0004BF8032084F83400204600F00BF808B1B3
:1035F000012070BDA5632563012084F834000020FC
:1036000070BD0000FEB50025044676200095CDE98A
:10361000015029460B460A46206803F09DF928BB55
:10362000134E46F8A05F206803F0A8F90125356025
:10363000204603F0DDFD28B184F83450A16B01432E
:10364000A16313E0204603F05CFD0028F4D14FF4A1
:103650000071206803F0E6F9002808D022680549C7
:103660009163A16B0143A16384F834500120FEBD36
:1036700000003042FF054000F0B585B00026054649
:1036800000960196029603960068284988424AD11E
:103690002749486940F480604861486900F48060C7
:1036A0000490886940F010008861886900F010007B
:1036B0000490886940F0200088618869022400F045
:1036C000200004904FF4F850CDE900040327694628
:1036D00003971848FDF79AFF0420CDE900046946D6
:1036E00003971548FDF792FF154C144820601020F1
:1036F000C4E901068020E060800020618000C4E908
:1037000005062046E661FDF769FE08B1FDF7C8F938
:103710002C64EC630022114631206562FEF7C6FC82
:103720003120FEF7B5FC05B0F0BD0000008001407F
:103730000010024000100140001401404404024007
:10374000780300202DE9F04F87B09B4616460D46C2
:103750000446FEF761F800903DB194F8340001286A
:1037600007D0A06B40F000500DE0A06B40F000606F
:1037700009E00020A063E26D06EB0B01914204D941
:10378000A06B40F00070A06386E0032184F8341041
:103790002168C862616C012900D076024FF0FF31C8
:1037A00001914FEA4B2102914FF0010803AA9021A9
:1037B00002278146CDF8188082E8820201A920689C
:1037C00003F0ABF8BBF1010F05D927633146206840
:1037D00003F0BCF905E0C4F830803146206803F0FE
:1037E000CEF9DFF834A130B12268C2F838A0A16B5D
:1037F0000143A1634CE0029E1EE0406B000413D520
:1038000096B10027206803F0C1F805F8010B010A02
:1038100005F8011B010C05F8021B000E361F7F1C6A
:1038200005F8010C082FEDD3FDF7F6FF0099411ABA
:10383000109881421DD2E0B12068426B40F22A31DB
:103840000A42DAD0416BC90509D5BBF1010F06D98F
:10385000616C032903D003F039FA0028C4D1206831
:10386000416B09071AD5C0F838A0A06B40F00800DA
:1038700050E02168C1F838A0A06B40F00040A06380
:1038800084F83480C4F83090032007B0BDE8F08F8E
:1038900084F83480C4F830900120F6E7416B890742
:1038A00005D5C0F838A0A06B40F0020032E0416BB3
:1038B00089061BD5C0F838A0A06B40F0200029E095
:1038C00003F064F805F8010B010A05F8011B010C6F
:1038D00005F8021B000E05F8010C361FFDF79CFFD2
:1038E0000099411A109881420ED268B12068416B4C
:1038F000890201D5002EE3D1216840F23A50886355
:1039000084F834800020C0E72168C1F838A0A06B9B
:1039100040F00040A063BBE7FF05400070477047E0
:103920002DE9F04F8DB09B4616460D460446FDF737
:1039300073FF0A903DB194F83400012807D0A06BC2
:1039400040F000500DE0A06B40F0006009E0002066
:10395000A063E26D06EB0B01914204D9A06B40F02D
:103960000070A0637AE0032184F834102168C862F3
:10397000616C012900D076024FF0FF3103914FEACC
:103980004B2104919021CDE905104FF00109CDE9BB
:103990000709824603A9206802F0BFFFBBF1010FAF
:1039A00006D9202020633146206803F0A9F905E0FC
:1039B000102020633146206803F0BBF95FEA00085D
:1039C00006D0216840488863A06B40EA080071E097
:1039D000049E27E0406B40041CD5DEB15FF0000779
:1039E00015F8010B009015F8011B361F40EA012065
:1039F000009015F8021B40EA0140009015F8011CE8
:103A000040EA016000906946206802F0D2FF7F1C06
:103A1000082FE5D3FDF700FF0A99411A1698814255
:103A200020D2F8B12068416B40F21A321142D1D055
:103A3000416BC90523D5BBF1010F20D9616C032966
:103A40001DD003F043F9D0B122681F499163A16BE7
:103A50000143A16384F83490C4F830A001200DB074
:103A6000BDE8F08F216818488863A06B40EA080021
:103A7000A06384F83490C4F830A00320EFE72068F6
:103A8000416B090705D510498163A06B40F0080020
:103A900010E0416B890705D50B498163A06B40F0AD
:103AA000020007E0416BC90606D507498163A06B98
:103AB00040F01000A063CDE740F23A51816384F8F2
:103AC00034900020CBE70000FF05400070B50400F3
:103AD00009D0606A002540B125616561A56294F84E
:103AE000510040B10CE0012070BD6068B0F5827FEC
:103AF000F4D0E561F2E784F85050204600F040F839
:103B0000022084F851002068016821F04001016022
:103B1000A088218900F4827001F404410843A1893E
:103B200001F400610843217C01F002010843217D7A
:103B300001F001010843218B01F400710843217F4A
:103B400001F03801084394F8201001F08001084387
:103B5000218D01F40051084321680860A069042107
:103B600001EA1040216848602068C16921F40061C1
:103B7000C1616565012084F85100002070BD00001E
:103B800030B585B000240094019402940394006839
:103B90001449884223D11448816941F480518161DC
:103BA000816901F480510491816941F004018161CE
:103BB00080690E4D00F004000490A02000900220C7
:103BC00001900320039069462846FDF71FFD402021
:103BD000CDE90004694628460294FDF717FD05B0BB
:103BE00030BD0000003001400010024000080140DC
:103BF0002DE9F84F044690F8500000270A9E1D4614
:103C000092468B464FF0010901280ED0012084F81E
:103C10005000FDF701FE804694F8510061680128CC
:103C20000CD0B1F5827F07D102E00220BDE8F88F09
:103C3000A16809B9042801D00227C2E0BBF1000F36
:103C400027D0BAF1000F24D01DB394F851000428F6
:103C500002D0052084F8510000206065C4F838A027
:103C6000E587A587C4F830B0E586A5862064606442
:103C700020680168490603D4016841F040010160F1
:103C8000E068B0F5006F606805D0E8B3012D46D05C
:103C90007FE0012795E008B1012D39D1206B216823
:103CA0000088C860206B801C2063E08E401EE08688
:103CB0002EE02068816889070FD5E18E69B1B9F1DE
:103CC000010F0AD1216B0988C160206B801C206321
:103CD000E08E401EE0864FF0000920688168C90729
:103CE0000CD0E18F51B1C068A16B0880A06B801C23
:103CF000A063E08F401EE0874FF00109FDF78CFDC7
:103D0000A0EB0800B04200E009E001D3701C50D1E4
:103D1000E08E0028CDD1E08F0028CAD13FE0206B93
:103D2000216800780873206B401C2063E08E401EE1
:103D3000E0862EE02068816889070FD5E18E69B1A1
:103D4000B9F1010F0AD1216B09780173206B401C76
:103D50002063E08E401EE0864FF0000920688168F5
:103D6000C9070CD0E18F51B1C068A16B0870A06B7E
:103D7000401CA063E08F401EE0874FF00109FDF773
:103D80004BFDA0EB0800B04202D3701C01D010E044
:103D90007EB1E08E0028CDD1E08F0028CAD1424606
:103DA0003146204603F09AFA28B1012720206065A9
:103DB00007E0032705E0A06818B92068C16880689B
:103DC0000090012084F85100002084F8500038460B
:103DD0002CE710B5401EB0F1807F01D3012010BD4B
:103DE0004FF0E02460610F21601705F049FF0020CB
:103DF000A06107202061002010BD704770470000BF
:103E000070B590F83C20012A2CD0012480F83C4069
:103E1000022280F83D2003685A689D6822F07006EF
:103E20000A6832435A60104B02689A420ED00F4B18
:103E30009A420BD0B2F1804F08D00D4B9A4205D078
:103E40000C4B9A4202D00C4B9A4204D1496825F09F
:103E500080031943916080F83D40002180F83C10B8
:103E6000084670BD022070BD002C014000340140A6
:103E70000004004000080040000C004010B50400A1
:103E800003D094F83D0010B107E0012010BD0020E0
:103E900084F83C00204600F01FF8022084F83D0022
:103EA000211D206804F0ACF8012084F8460084F855
:103EB0003E0084F83F0084F8400084F8410084F814
:103EC000420084F8430084F8440084F8450084F8F4
:103ED0003D00002010BD000008B50068B0F1804F23
:103EE00012D10A48C16941F00101C161C0690122D2
:103EF00000F00100009011461C20FEF7D7F8BDE845
:103F000008401C20FEF7C4B808BD000000100240A5
:103F100090F83D10012901D001207047022180F85E
:103F20003D100168CA6842F00102CA6000680E498B
:103F300088420ED00D4988420BD0B0F1804F08D096
:103F40000B49884205D00B49884202D00A49884271
:103F500004D1816801F00701062903D0016841F00E
:103F60000101016000207047002C01400034014035
:103F70000004004000080040000C004070B50446FA
:103F800090F83C00012817D0012584F83C5002200D
:103F900084F83D002068826822F0770222F47F4294
:103FA00082600868502830D00DDC20284DD005DC18
:103FB00098B310283BD148E0022070BD302844D08F
:103FC000402834D139E0602828D0702806D0B0F5D8
:103FD000805F2CD0B0F5005F29D10AE0CB68D1E931
:103FE0000121206804F052F82068816841F07701CF
:103FF00009E0CB68D1E90121206804F047F8206886
:10400000816841F48041816011E0CA684968206894
:1040100004F04EF85021206807E016E0CA684968AD
:10402000206804F056F86021206804F039F884F81C
:104030003D50002084F83C0070BDCA684968206883
:1040400004F036F840212068EFE722680146104668
:10405000EBE7704770B50446006801694FF0000552
:10406000C943890715D4C168C943890711D4E91E1A
:10407000016101202077206880698007204602D0F6
:10408000FFF7E7FF04E000F098F8204600F096F80C
:10409000257720680169C943490717D4C168C94316
:1040A000490713D46FF004010161022020772068D2
:1040B000806910F4407F204602D0FFF7CAFF04E079
:1040C00000F07BF8204600F079F825772068016938
:1040D000C943090716D4C168C943090712D46FF050
:1040E00008010161042020772068C069800720460C
:1040F00002D0FFF7AEFF04E000F05FF8204600F0CA
:104100005DF8257720680169C943C90617D4C168DD
:10411000C943C90613D46FF010010161082020774C
:104120002068C06910F4407F204602D0FFF791FF5D
:1041300004E000F042F8204600F040F825772068BF
:104140000169C943C90708D1C168C943C90704D176
:10415000891E0161204600F032F820680169C943D8
:10416000090609D4C168C943090605D46FF0800166
:1041700001612046FFF741FE20680169C9434906F5
:1041800009D4C168C943490605D46FF040010161F3
:10419000204600F015F820680169C94389060BD450
:1041A000C168C943890607D46FF020010161204628
:1041B000BDE87040FFF722BE70BD70477047704782
:1041C000704738B5044690F83E0020281CD181B1D4
:1041D0007AB194F83C00012816D0012084F83C0004
:1041E0002063204604F020F9002803D1216B012927
:1041F00001D0012038BD21680A684A680092CA6867
:1042000042F01002CA6038BD022038BD074A10B51E
:1042100090420AD1C9B2064804F080F9BDE81040C6
:10422000802203490148FFF7CCBF10BD14020020D3
:104230009C04002070470000F8B50268044610682E
:10424000D168536910F00F0F4FF0000553D003F001
:10425000010601F4907737435FD0C20705D0CA0545
:1042600003D5226C42F001022264420705D5DA0729
:1042700003D0226C42F002022264820705D5DA07DD
:1042800003D0226C42F004022264020707D501F039
:104290002002324303D0226C42F008022264226CD6
:1042A000002A34D0800604D5880602D5204604F0C2
:1042B00004F820684069216CC0F38010090700D41D
:1042C00030B3204603F0D8FF2068416949061BD56A
:1042D000416921F040014161A06BA8B15849416397
:1042E000A06BFCF7BBFE002811D0A06B416B01B0A6
:1042F000BDE8F040084783060FD58B060DD5204654
:10430000BDE8F84003F0D9BF2046FFF793FFF8BDA2
:104310002046FFF78FFF2564F8BD266B2023012E72
:1043200052D1C60650D5CE064ED5106850680090C2
:10433000506940062AD5A16B086840680004000C4B
:10434000EAD0A68D8642E7D9E0858869202818D072
:10435000D06820F48070D0602068416921F00101AC
:1043600041612068416921F04001416184F83E309B
:1043700025632068C16821F01001C160A06BFCF7C3
:1043800049FEA08DE18D401A81B219E0A08DE18D2A
:10439000401A81B2E08D0028BED00029BCD0D06880
:1043A00020F49070D0602068426922F001024261DE
:1043B00084F83E3025632068C26822F01002C26093
:1043C0002046FFF723FFF8BD05062BD50D0629D59E
:1043D00094F83D002128F6D1A068B0F5805F01D1A6
:1043E0002069B0B1206A411C2162216800784860D0
:1043F000E08C401E0004000CE084E4D12068C16819
:1044000021F08001C1602068C16841F04001C160B5
:10441000F8BD206A0088C0F308005060206A801C44
:104420002062E5E74006F3D54806F1D5D16820467D
:1044300021F04001D16084F83D3000F0E8F8F8BD8B
:10444000AB81000870B5040004D094F83D0000254D
:1044500010B106E0012070BD84F83C50204600F009
:1044600023F8242084F83D002068C16821F400511D
:10447000C160204603F07CFF2068016921F490416F
:1044800001612068416921F02A0141612068C16809
:1044900041F40051C1602564202084F83D0084F877
:1044A0003E00002070BD000070B586B000250646B5
:1044B00000950195029503950068224988423ED1F6
:1044C0002149886940F480408861886900F480400F
:1044D0000490886940F00400886188691B4C00F0F2
:1044E00004000490481500900220019003200390DE
:1044F00069462046FDF78AF82015CDE90005694692
:1045000020460295FDF782F8124C1148C4E90005D7
:104510008020C4E9025025616561A5612046E561FE
:10452000FCF75CFF08B1FCF7BBFAB463002211464C
:1045300025206662FDF7BAFD2520FDF7A9FD06B02E
:1045400070BD00000038014000100240000801402A
:104550005800024058020020704770472DE9F84388
:10456000044690F83D001F4616460D4620284CD1C3
:10457000C5B1BEB194F83C00012846D0012084F8B2
:104580003C004FF00008C4F84080212084F83D0032
:10459000FDF742F9A6848146E684A068B0F5805F05
:1045A00003D004E00120BDE8F883206928B12E463D
:1045B0005FF0000584F83C800EE00026FAE78021D9
:1045C000204603F069FFA0B9AEB116F8010B2168CF
:1045D0004860E08C401EE084E08C4B464FF00002C7
:1045E00000970028EBD14FF04001204603F054FF24
:1045F00030B10320D7E735F8020BC0F30800E6E737
:10460000202084F83D000020CDE70220CBE7704752
:10461000FEE700000148FDF707B90000BC030020D9
:1046200038B5406A002190F83D202B4B46F2A81483
:104630001B68B3FBF4F3C3EBC30303EB83030093E7
:104640003BB15B1E009303681B689B0505D5009B6F
:10465000F6E7036C43F020030364436B03B19962F4
:10466000836B03B1996203681C6824F480641C6046
:104670004185436B03B15963836B03B1596303688D
:104680001C6824F001041C6090F83D402023602C3D
:104690000BD0282434EA02020FD080F83D3080F895
:1046A0003E1000BFFDF7D8F938BD80F83D3080F8E6
:1046B0003E100164FDF7B6F838BD0268136843F098
:1046C000010313600268136843F48063136001639D
:1046D00080F83D40E6E700000C00002010B5406A7D
:1046E0000021426B02B19162826B02B19162026859
:1046F000136823F4806313604185202280F83D20F5
:1047000080F83E10016C41F010010164FDF7A4F93E
:1047100010BD2DE9F041446A94F83D2094F83E50D4
:10472000E16A2068436823F440734360636B0020B0
:1047300003B19862A36B03B19862212333EA0207A5
:104740004FF022060CD036EA020701D1202D07D007
:1047500094F83E20002A21D0628D012A20D024E046
:1047600021684D6825F400654D6060852820292A60
:1047700002D02A2A07D00CE0236384F83D002046AB
:10478000FDF72DFC05E0266384F83D002046FDF78B
:1047900025FC2068416841F440714160BDE8F0812A
:1047A0002268136823F4806313602268536823F43B
:1047B0004073536011F5803F06D0082904D0B1F151
:1047C0002A4F01D0202904D121680A6842F40072DE
:1047D0000A6021684A6822F480524A6021684A6867
:1047E00022F400624A606085216C19B12046FDF711
:1047F00033F9D3E7202184F83D1094F83E1084F873
:104800003E00402905D0122020632046FDF7EBF939
:10481000C4E720632046FDF7AFFABFE770B5044652
:1048200090F83D0094F83E10102901D0402906D19F
:10483000222804D121680A6822F400620A60282133
:1048400031EA00024FF000054FF0200626D0216823
:104850004968090505D4602803D084F83D6084F8D0
:104860003E50256320684168090537D5416821F429
:1048700000614160606B3D4990F82120012A11D010
:104880004163606BFCF7EAFB38B32068016821F0F4
:104890000101016084F83D60606B1CE0256384F8D1
:1048A0003D10DFE7A06B4163A06BFCF7D7FBA0B125
:1048B00020684169C943490605D40069616A0870E6
:1048C000606A401C60622068016821F0010101609B
:1048D00084F83D60A06B416B884710E094F83D1070
:1048E000602910D04169C943490605D40069616A4D
:1048F0000870606A401C60622046FDF7ADF8206CCD
:10490000C1071CD115E084F83D6025644169C943A5
:10491000490605D40069616A0870606A401C6062DB
:104920002068016821F0010101602046FCF77AFF50
:10493000E5E7810703D4410701D4000704D52068C7
:10494000416821F4E061416094F83D00216C490721
:104950000BD5282809D10648E062256384F83D601C
:1049600084F83E502046FDF73DF970BD2146000811
:104970000000FFFF01684A69D24352050FD46FF46B
:1049800080624A61002140F8301F20224273817307
:10499000026942F0040202610173012070470020A5
:1049A000704710B5C26A438D0168042B06D0438D51
:1049B000032B08D0438D022B1DD012E04A6822F44D
:1049C00080624A600CE04B6823F480634B60042AE9
:1049D00006D0022A04D001680A6822F480620A60C4
:1049E00001680969426A1170416A491C4162418D3E
:1049F000491E418510BD012A30D0102A2ED0042A2C
:104A000030D0022A2ED00A6842F400720A6001688F
:104A10000969426A1170416A491C4162428D521E05
:104A20004285026812690A70416A491C4162418DDF
:104A3000491E418501684A6822F440724A6020217B
:104A400080F83D1090F83E200021402A80F83E106A
:104A50000CD012210163FDF7C6F810BD0A6822F4DC
:104A60008062D3E70A6842F48062CFE70163FDF712
:104A700083F910BD38B590F83D10222914D1418D2D
:104A8000032912D901680969426A1170416A491CF7
:104A90004162418D491E4185418D032904D1006841
:104AA000416821F48061416038BDC26A022AFBD0AE
:104AB000012901D00029F7D1274946F2A813002285
:104AC0000968B1FBF3F101EB81010091016820233A
:104AD000009C641E009422D00C68A405F8D40C68D5
:104AE00024F480640C6001684C6824F4E0644C6039
:104AF00001680969446A2170416A491C4162418D1B
:104B0000491E418580F83D3090F83E1080F83E20E7
:104B100040291DD012210163FDF765F838BD046CF2
:104B200044F0200404644C6824F4E0644C600168A0
:104B30000969446A2170416A491C4162418D491EDC
:104B4000418580F83D3080F83E20FCF785FF38BD78
:104B50000263FDF711F938BD0C00002010B5C26AE0
:104B600090F83D1021290BD1418D51B1416A026865
:104B700009781161416A491C4162418D491E418594
:104B800010BD20230021082A13D0202A11D012F5AD
:104B9000803F0ED00268546824F4E064546011220F
:104BA000026380F83E1080F83D3000BFFDF71CF82E
:104BB00010BD0268546824F4E0645460026814680C
:104BC00044F400741460016380F83D3090F83E2096
:104BD00080F83E10402AE9D1FDF7D0F810BD000062
:104BE00010B590F83D1090F83E30C26A048DB4B113
:104BF000212903D0402B11D122290FD1418DE1B3BE
:104C000090F83E10402942D0416A0268097811614B
:104C1000416A491C4162418D491E418510BD2129CF
:104C2000E8D120230021082A13D0202A11D012F520
:104C3000803F0ED00268546824F4E064546011226E
:104C4000026380F83E1080F83D3000BFFCF7CCFFD7
:104C500010BD0268546824F4E0645460026814686B
:104C600044F400741460016380F83D3090F83E20F5
:104C700080F83E10402AE9D100E002E0FDF77EF81E
:104C800010BD0068416821F48061416010BDBDE83D
:104C9000104000F0F3B8000078B590F83E50C26ABA
:104CA000046B90F83D6000230168222E73D1066DDD
:104CB0000EB9402D6FD0056D1DB90569B5F5404F92
:104CC0001BD0458D95B3468D484D012E20D0448D87
:104CD000022C4DD00C6844F480640C6001684C6870
:104CE000240579D5AA4273D0012A71D0082A6FD041
:104CF000102A6DD0202A6BD06EE04A698A69009232
:104D00000A6842F480720A60016D491C016578BD31
:104D1000AA4214D10A6822F480620A6001684A68D3
:104D2000120504D50A6822F4806217E0FFE74A6999
:104D30008A6900920A6842F400720A6050E0082A08
:104D400010D0202A0ED0122C0AD0042A03D0022A16
:104D500001D0102AE6D10A6842F480620A603BE082
:104D6000012ADFD00A6822F480620A600168DEE767
:104D7000042A11D0022A0FD0102A0DD00C6844F456
:104D800000640C6001684C698C6900940C6824F420
:104D900080640C6008E025E00C6844F480640C60DA
:104DA00001684C698969009101684C68240517D530
:104DB000AA4207D0012A05D0082A03D0102A01D020
:104DC000202A0DD14A6842F480524A6008E0FFE789
:104DD0004A6842F480524A6001684A6989690091D0
:104DE000036578BD48698869009078BD0000FFFFC1
:104DF00090F83E10402910D00169B1F5804F19D0CC
:104E0000016DA9B3016D012910D1416C5FF0F10270
:104E100001F4407142EAD11106E0016D0029416CB4
:104E200005D0C9B241F0010100680161704701F08D
:104E3000FE01F9E790F83D102129416C09D0C9B273
:104E400041F0010102681161416B29B1896A49B9D8
:104E500002E001F0FE01F5E7816B0029E6D0896AE6
:104E60000029E3D00068416841F400614160704767
:104E7000FFE7416CF02201F44071CBE710B590F8E8
:104E80003D10026D22B3026D012A2FD0026D022A5D
:104E90001DD122292FD0428D0AB1212933D0428D34
:104EA000002A14D1212912D101684A6822F4E06253
:104EB0004A6001680A6842F400720A6000210163D6
:104EC000202280F83D2080F83E10FCF757FF10BDEF
:104ED000C16C0129816C02D0C1F3072108E002688E
:104EE000C9B21161016D891C016510BD816CC9B227
:104EF0000268116104E001680A6842F480720A6085
:104F0000016D491CF0E7416A026809781161416A44
:104F1000491C4162418D491E418510BD2DE9F84370
:104F2000044600680D46DDE9089701689846164674
:104F300041F4807101604B4600224FF00111204680
:104F4000009700F011F948B120680068C00502D54B
:104F50004FF4007020640320BDE8F883216805F059
:104F6000FE0008613B464A461549204600F030F9EC
:104F700088B920684169806900903A4649462046D0
:104F800000F071F948B1206C042804D12068016850
:104F900041F4007101600120DEE7F5B2B8F1010FC4
:104FA00009D02168300A08613A464946204600F097
:104FB0005AF90028E7D1206805610020CCE70000FD
:104FC0000200010038B50C4690F83D20002128254C
:104FD000954302680B4605D051699169009180F8AC
:104FE0003C3038BD556825F480655560E243540770
:104FF00000D50121120601D5828900E0028B80F8DC
:105000003C3092B2FCF70FFC38BD0000F8B590F8C8
:105010003D6004460068416821F4E0614160206819
:10502000002541690091016841F00101016020689B
:10503000016821F48061016020684168090520D57C
:10504000474F222E48D02A2E46D0616B0968496806
:105050006185618D19B1216C41F0040121644168C1
:1050600021F400614160606BFCF790F8012808D0E2
:10507000606B4763606BFBF7F1FF10B1606B416BD6
:105080008847608D08B320684169C943490708D43F
:105090000069616A0870606A401C6062608D401E31
:1050A000608520684169C943490608D40069616A7E
:1050B0000870606A401C6062608D401E6085608D73
:1050C00018B1206C40F004002064206C00B320462E
:1050D000BDE8F840FFF7A2BBA16B0968496861858C
:1050E000618D19B1216C41F004012164416821F402
:1050F00000614160A06BFCF749F80128C1D0A06BAA
:105100004763A06BFBF7AAFF0028BAD0A06BB6E7F5
:105110002A2E06D12563282084F83D002046FCF77E
:105120005DFF94F83D10202028290DD0216B222905
:1051300001D0222E07D1256384F83D0084F83E502B
:105140002046FCF74BFFF8BD0649E162256384F871
:105150003D0084F83E502046FCF744FDF8BD0000B9
:10516000214600080000FFFF2DE9F0471E4690464B
:105170000D460446C1F30747DDF8209008E0701C97
:1051800006D0FCF749FBA0EB0900B0420FD876B17E
:105190002068012F18D0806925EA00000004000C67
:1051A00014D000214145EAD00020BDE8F08700205E
:1051B00044F8300F20216173A073216941F0200170
:1051C000216120730120F0E74069E5E70121E9E76B
:1051D0002DE9F0479A4691460E46044600254FF0C9
:1051E0002008C1F3074725E020684069C043400517
:1051F00014D42068016841F40071016021686FF4E3
:1052000080604861256384F83D8084F83E50206CBE
:1052100040F00400206484F83C501FE0B9F1FF3FE7
:1052200008D0FCF7F9FAA0EB0A0149450CD8B9F10E
:10523000000F09D02068012F13D0806926EA0000F2
:105240000004000C0BD0CFE744F8305F84F80D80E9
:10525000A573206940F02000206125730120BDE87E
:10526000F0874069EAE770B516460D4604460DE042
:105270002046FFF77FFB08B1012070BD681C05D0F8
:10528000FCF7CAFA801BA84207D835B120684069EC
:10529000C0430006ECD4002070BD002044F8300F5D
:1052A00020216173A073216941F0200121612073E5
:1052B000E2E70000F0B500230A24302537261F4618
:1052C00011E000BFB4EB107F02D905EB107C01E0C8
:1052D00006EB107C01F813C001EB430C00015B1CD2
:1052E0008CF80170DBB29342ECD3F0BD1CB506F034
:1052F000F3FF00281BD09E208DF80000E7208DF8DA
:1053000001006946102002F0AFFD06F0E5FF00281D
:105310000DD000208DF800006946082002F0A4FDA1
:1053200001A9002006F0A2FF012800D000201CBD2A
:105330002DE9F0479C4C012602272078DFF86CA26B
:1053400000254FF011094FF00B08022825D003DC8F
:1053500090B1012804D117E00A2832D00B283DD0A3
:10536000401C207060784FF02109022861D03FDC9A
:1053700080B3012840D153E001215046FCF742FAA6
:105380000028EFD12670EDE701215046FCF73AFAEC
:1053900008B12570E6E72770E4E701215046FCF7E5
:1053A00031FA30B12570E088502806D913202071D9
:1053B00005E0E088401CE080D4E784F80490E580B4
:1053C000D0E701215046FCF71DFA20B1257084F882
:1053D0000490C7E71CE084F80080C3E70121504631
:1053E000FCF710FA0028BDD0257012202071B9E713
:1053F0000A2832D00B283DD0401C6070E0784FF076
:105400004109022861D03FDC80B3012840D153E03C
:1054100002215046FCF7F6F90028EFD16670EDE75F
:1054200002215046FCF7EEF908B16570E6E76770B7
:10543000E4E702215046FCF7E5F930B16570E088F9
:10544000502806D92320207105E0E088401CE08028
:10545000D4E784F80490E580D0E702215046FCF7B9
:10546000D1F920B1657084F80490C7E71CE084F896
:105470000180C3E702215046FCF7C4F90028BDD0E3
:10548000657022202071B9E70A2832D00B283DD060
:10549000401CE070A0784FF03109022859D03FDC61
:1054A00080B3012840D14BE008215046FCF7AAF90F
:1054B0000028EFD1E670EDE708215046FCF7A2F98D
:1054C00008B1E570E6E7E770E4E708215046FCF72D
:1054D00099F930B1E570E088502806D94320207151
:1054E00005E0E088401CE080D4E784F80490E58083
:1054F000D0E708215046FCF785F920B1E57084F823
:105500000490C7E714E084F80380C3E708215046FD
:10551000FCF778F90028BDD0E57042202071B9E78A
:105520000A282BD00B2835D0401CA070BDE8F0878E
:1055300004215046FCF766F90028F7D1A670F5E77C
:1055400004215046FCF75EF908B1A570EEE7A7709C
:10555000ECE704215046FCF755F938B1A570E08816
:10556000502801D884F80490E580DFE7E088401CEB
:1055700080B2E0805028D9D1332013E00421504676
:10558000FCF740F918B1A57084F80490CEE784F8D0
:105590000280CBE704215046FCF734F90028C5D03F
:1055A000A57032202071C1E7980000200010014052
:1055B0000A480078062810D2DFE800F00305070942
:1055C0000B0DFBF76BBBFBF7B3BBFBF7F3BAFBF7BA
:1055D0000DBBFBF723BBFBF757BB704794000020C4
:1055E00070B5D0F8B842054604F58051087E38B948
:1055F000486928B1607A18B90121284603F0A0FA59
:105600008121284603F09CFA607A022809D141F2F0
:105610000C0022182846BDE870401F23012103F02A
:105620000FBA70BD70B5D0F8B842064604F5805583
:1056300001212869286368696863304603F0A8F986
:105640001F280AD12649E868884206D1697E0129C7
:1056500003D8A87E08B1102808D9697E2023052226
:10566000304601F0DFF8022060720AE041F21B00D0
:105670002218304600F0AAFE0028207A08DA052811
:1056800004D03046BDE87040FFF7AABF012121E0F9
:10569000022824D0012822D0032820D06589C5B152
:1056A00004F10C02D6F8B842304604F580514B693B
:1056B000AB4200D32B464E6B9BB2751B4D6300254E
:1056C00081F8385004212172BDE87040812103F037
:1056D00052BA00213046BDE8704000F08BB870BD72
:1056E0005553424310B5D0F8B842627A022A08D026
:1056F00009060BD5012A09D0BDE81040012100F0B0
:1057000079B8812103F01CFA0020607210BD10B539
:10571000D0F8B8220446107A022805D0032801D018
:10572000042811D100210AE041F21900815C801C9B
:105730000244204600F04AFE002805DA01212046F6
:10574000BDE8104000F056B810BD10B5D0F8B82232
:105750000446107A88B1012814D141F21900815C05
:10576000801C0244204600F031FE00280ADA204660
:10577000BDE81040012100F03DB82046BDE81040D2
:10578000FFF750BF10BDD0F8B8020021017270477A
:1057900070B5D0F8B84205460021217204F580505A
:1057A000617280F85D1080F85C10D5F8BC02016869
:1057B000002088470121284603F0E1F8812128468E
:1057C00003F0DDF841F20C0022182846BDE87040D5
:1057D0001F23012103F034B9D0F8B81200221F238F
:1057E0000A7201224A7241F20C020A44012103F0BA
:1057F00027B9000070B5D0F8B842054604F58052CC
:105800000B48D06282F838100020207241F22C0040
:1058100022180D238121284603F0ADF941F20C0036
:1058200022182846BDE870401F23012103F008B963
:105830005553425338B5114C606940F00100606126
:105840006069002200F00100009011460E20FCF774
:105850002DFC0E20FCF71CFC606940F0020060612A
:105860006069002200F00200009001213B20FCF75B
:105870001DFCBDE838403B20FCF70ABC001002408C
:105880002DE9F04385B000264748029603968169CA
:1058900041F040018161816901F040010491816919
:1058A00041F010018161816901F010010491816969
:1058B00041F004018161816901F004010491816971
:1058C00041F008018161816901F008010491816959
:1058D00041F02001816180694FF6FF75032400F0DB
:1058E0002000CDE90054049069463048FBF78EFE55
:1058F000DFF8BC80CDE9005469464046FBF786FEE0
:1059000041F6FF00CDE90004DFF8A890694648465B
:10591000FBF77CFE4FF6F770CDE900046946264898
:10592000FBF774FECDE9005469462448FBF76EFE90
:1059300002274FF48070CDE9000769464846039777
:10594000FBF764FE00224FF460414046FBF75FFF27
:10595000002202214846FBF75AFF01256003CDE9EA
:105960000005CDE9025469464046FBF74FFEE803C7
:10597000CDE90005CDE9025769464046FBF746FEF2
:105980000F20CDE90006694602954046FBF73EFE32
:10599000CDE90075CDE9025469464846FBF736FE6D
:1059A00005B0BDE8F083000000100240001801407F
:1059B0000010014000080140000C014000140140AB
:1059C0000D4810B50B4901600C49416000214FF4AE
:1059D00080428160C0E9031241618161C16101625D
:1059E000FCF73CF8002803D0BDE81040FBF758B89E
:1059F00010BD000000580040BC030020801A0600C3
:105A00000F4810B50D490160002141608160C160FF
:105A10000161416120218161FDF7D8FD08B1FBF7EB
:105A20003FF84FF400610648FDF74EFB002803D015
:105A3000BDE81040FBF734B810BD00000080014005
:105A4000F4020020104810B50E4901604FF4827135
:105A5000416000218160C1604FF400720161C0E9C2
:105A600005123822C0E90721416281620A21C16220
:105A7000FEF72CF8002803D0BDE81040FBF710B863
:105A800010BD0000003001409C02002010B586B01F
:105A900000241848009401940294039404944FF055
:105AA0008041059401604721C0E9011440F2CF71A3
:105AB000C0E9031480218161FEF7E0F908B1FAF72B
:105AC000EFFF4FF48050009069460A48FEF756FAFF
:105AD00008B1FAF7E5FF2020CDE9040404A9054840
